:020000040800F2
:10000000003700200D020008AF220008652000081C
:10001000AD22000825050008992C0008000000000A
:100020000000000000000000000000005126000851
:10003000BD05000800000000D32200085326000878
:1000400027020008270200082702000827020008EC
:100050002702000827020008BF0500082702000841
:1000600027020008270200082702000827020008CC
:1000700027020008270200082702000827020008BC
:1000800027020008270200082702000827020008AC
:10009000270200082702000827020008270200089C
:1000A000270200082702000827020008270200088C
:1000B000270200082702000827020008270200087C
:1000C000270200082702000827020008270200086C
:1000D00027020008DD2B000827020008270200087D
:1000E000270200082702000827020008270200084C
:1000F000270200082702000827020008270200083C
:10010000270200082702000827020008270200082B
:10011000270200082702000827020008270200081B
:100120002702000827020008290500082702000806
:1001300027020008270200082702000827020008FB
:1001400027020008270200082702000827020008EB
:1001500027020008270200083505000827020008CA
:1001600027020008270200082702000827020008CB
:1001700027020008270200082702000800000000EC
:1001800027020008270200082702000827020008AB
:10019000270200082702000827020008270200089B
:1001A000270200082702000827020008270200088B
:1001B000270200082702000827020008270200087B
:1001C000270200082702000800000000270200089C
:1001D000270200082702000827020008270200085B
:1001E000270200082702000827020008270200084B
:1001F0002702000827020008DFF80CD000F07EF884
:1002000000480047A14A0008003700200648804700
:1002100006480047FEE7FEE7FEE7FEE7FEE7FEE7EB
:10022000FEE7FEE7FEE7FEE71D270008F9010008EC
:100230002DE9F05F0546002092469B46884606461B
:10024000814640241BE0284641464746224600F0AE
:1002500045F853465A46C01A914110D311461846E4
:10026000224600F02CF82D1A67EB01084F46224673
:100270000120002100F023F817EB00094E41201E59
:10028000A4F10104DFDC484631462A464346BDE876
:10029000F09F30B50B46014600202022012409E0E2
:1002A00021FA02F59D4205D303FA02F5491B04FA2F
:1002B00002F52844151EA2F10102F1DC30BD202A0E
:1002C00004DB203A00FA02F1002070479140C2F1AD
:1002D000200320FA03F3194390407047202A04DBDF
:1002E000203A21FA02F00021704721FA02F3D040AF
:1002F000C2F120029140084319467047064C074D51
:1003000006E0E06840F0010394E8070098471034E5
:10031000AC42F6D3FFF774FFF4FE020814FF0208A4
:100320000449054A31F8101052F82000012200F06B
:10033000C3BB0000AA520008480000200449054A37
:1003400031F8101052F82000002200F0B5BB000078
:10035000AA520008480000200349044A31F810104E
:1003600052F8200000F0A4BBAA5200084800002068
:1003700030B520248FB0002162014FF48075D30086
:100380000393CDE907210991CDE905150B91CDE93D
:1003900000400C910D9102F027F960B9074841F235
:1003A0008832694600F0B2FD28B94FF4487001F078
:1003B00091FF002800D001200FB030BD4025002063
:1003C00010B590B002208DF8380002F0BFF810B1DF
:1003D000042010B010BD02F007F918BB00200790F0
:1003E0004FF480740694312100912204059001237A
:1003F00041F28834CDE90A30CDE908020C9022465A
:100400000D906946084800F081FD58B906480EA9CC
:10041000224600F0BDFE28B94FF4487001F05AFFA3
:100420000028D6D00120D4E740250020F0B58FB0B9
:1004300005464FF4807400234FF4806C05936001EF
:1004400003900327C6020E48CDE9064CCDE90A23E6
:10045000CDE90836CDE9007141F28834694622467B
:100460000C930D9300F052FD30B905482246294601
:1004700000F030FE002800D001200FB0F0BD0000D9
:10048000402500202DE9F0438FB08146002001E097
:1004900000F580708842FBD9441A944200D9144672
:1004A0004FF48075002032230093AE006F01039754
:1004B0004FF0407CCDF824C0CDE90760CDE90505BB
:1004C00001EB02080E4641F288370B900C900D901C
:1004D00001960A9402F088F878B911483A466946BC
:1004E00000F014FD48B90E483A46494600F050FE67
:1004F00018B9384601F0EEFE18B101200FB0BDE882
:10050000F083264406F580704045A14402D9A8EB4B
:10051000060400E02C464645DAD30020EEE7000052
:1005200040250020FEE70000014800F081B80000EF
:10053000FC250020014800F07BB800005C2600206C
:1005400001681823CAB2103AB2FBF3F2054B6FF3FD
:100550000901032A9B5CC36500D9091D8165084612
:1005600070470000B052000810B583694FF0C074A6
:10057000826A0146002053B1B3F5005F15D072B115
:10058000012A0CD0022A0AD0032A09D104E01AB1A8
:10059000012A06D0022A03D1C96AC90100D5012067
:1005A00010BDC96AA142FAD010BD002AF7D0012AB5
:1005B000F2D0022AF3D0032AF3D010BD70470120F5
:1005C00000F07EB9002200F001B800000E4B70B5BB
:1005D0000546DC7C0120032C15D2DE7C002403F1CF
:1005E00010009C55DE7C03EB86067560DD7C2A548A
:1005F000D87C421CDA743A232F22303008704B70BA
:1006000020468A70CC7070BDE826002090F8351026
:10061000022903D08021416501207047052180F81F
:1006200035100068016821F0010101600020704769
:100630002DE9F84304464FF00009644B0820CDF83B
:1006400000904FF41652A56D94F85C101B682E684C
:10065000B3FBF2F700FA01F131420FD021680A68CA
:1006600052070BD50A6822F004020A6094F85C1065
:100670008840A860606D40F00100606594F85C10EF
:100680004FF0010808FA01F0304208D021684969AA
:10069000090604D5A860606D40F00200606594F81A
:1006A0005C1004208840304208D02168096889071E
:1006B00004D5A860606D40F00400606594F85C109B
:1006C00010208840304218D021680968090714D5E5
:1006D000A86020680168490304D50068000308D5B4
:1006E000A16C07E00168C90503D4016821F0080185
:1006F0000160216C09B12046884794F85C102020E5
:100700008840304231D021680968C9062DD5A860DB
:1007100094F8350005282068016806D0490347D5BC
:10072000006800031DD4616C1CE021F0160101601B
:100730002068416921F080014161206C08B9A06CFA
:1007400020B12068016821F00801016094F85C3054
:100750003F229A40AA6084F8349084F83580216D55
:100760001FE0E16B09B120468847606D00282BD05F
:10077000606DC00714D0052084F83500206801683A
:1007800021F0010101600098401C0090B84203D89C
:1007900020680068C007F6D184F8349084F835806A
:1007A000E16C002910D001B02046BDE8F0430847B5
:1007B0000168C905D5D4036823F01003036084F8E9
:1007C000349084F83580CCE7BDE8F88380000020C1
:1007D0002DE9F047044600F075F9054664B14FF085
:1007E000000984F83490022184F8351020680168EB
:1007F00021F0010101600EE00120BDE8F08700BF9B
:1008000000F060F9401B052805D92021616503200F
:1008100084F83500F1E720680068C007F0D1D4E91A
:100820000020D4E90251D4E9043C284304F118051E
:1008300019430843116895E8E00140EA0C001C4B9D
:100840002843194040EA060040EA0700B8F1040FC7
:1008500040EA010003D1D4E90B13194308431060A7
:1008600020680126656A4069042D20F0070045EAEA
:1008700000050CD1D4E90A01054341B12046FFF738
:1008800073FE20B14020606584F83560B4E72068CD
:1008900045612046FFF754FE94F85C303F229A40B1
:1008A0008260C4F8549084F835600020A5E7000009
:1008B0003F8010E0012802D10220FFF74DBD7047B4
:1008C000044910B50A68024202D00860FFF7F2FF3F
:1008D00010BD0000143C01402DE9F84FDFF89CE109
:1008E00000224FF001084FF0030B4FF00F0A00BF3A
:1008F0000B6808FA02F42340A34271D14D68022D1F
:1009000001D0122D0FD1D5080E69570700EB8505D0
:10091000A9462D6AFF0E0AFA07FCBE4025EA0C051F
:100920002E43C9F820600F79550006680BFA05FCC4
:1009300007F0030726EA0C06AF40374307604E680E
:10094000012E05D0022E03D0112E01D0122E0ED171
:100950008668CF6826EA0C06AF4037438760466852
:100960000F79A643C7F30017974037434760C46821
:100970008E6824EA0C04AE402643C6604C68E4004E
:1009800075D53F4C256845F480452560246822F0E4
:100990000306950704F4804400943A4C2D0F264436
:1009A000D6F80848DFF8E0C00AFA05F7604524EAFF
:1009B000070401D100272EE0344FB84201D10127AE
:1009C00029E0334FB84201D1022724E0314FB84229
:1009D00001D103271FE0304FB84202D104271AE0AB
:1009E00045E02E4FB84201D1052714E02C4FB84204
:1009F00001D106270FE02B4FB84201D107270AE0AB
:100A0000294FB84201D1082705E0284FB84201D14B
:100A1000092700E00A27AF4027437546C6F8087843
:100A20004E68DEF80040F60324EA030400D51C43B8
:100A3000124E2C60361D4D683468AD0324EA030461
:100A400000D51C430D4F346008374D683C68ED02FB
:100A500024EA030400D51C43084D3C600C354E6865
:100A60002C68B60224EA030400D51C432C60521CF7
:100A7000102AFFF43DAFBDE8F88F0000003C0140B4
:100A800044380240003001400000024000040240AF
:100A900000080240000C0240001002400014024016
:100AA00000180240001C02400020024000240240C6
:100AB00042694A40426170470AB181617047090446
:100AC000FBE70000014880687047000074000020C8
:100AD00030B590F84120202A24D190F84020012AF6
:100AE00020D0012380F84030242280F841202023A8
:100AF00000240268156825F0010515600268156874
:100B000025F480551560026815680D43156001686D
:100B10000A6842F001020A6080F8413080F84040E3
:100B2000002030BD022030BD30B590F84120202A91
:100B300022D190F84020012A1ED0012380F84030B5
:100B4000242280F84120202400250268136823F025
:100B5000010313600268136823F4706343EA012100
:100B6000116001680A6842F001020A6080F84140A1
:100B700080F84050002030BD022030BD70B5040028
:100B800004D094F84100002510B106E0012070BDAA
:100B9000204684F8405000F04DF8242084F84100AD
:100BA0002068016821F001010160D4E9001020F003
:100BB000706008612068816821F400418160E0680C
:100BC00021680128A06806D040F404408860E068ED
:100BD000022803D006E040F40040F7E721684FF414
:100BE0000060486020212068114A43681343436035
:100BF0002068C26822F40042C26054F8106B0DCC29
:100C0000104340EA0320F06054F81C3CD4E9000291
:100C10001043186054F81C0D026842F00102026093
:100C2000656484F84110256384F84250002070BD4B
:100C30000080000210B5006886B0114988421CD1BE
:100C400012210122032304244FF440508DE81F0099
:100C50000C486946FFF740FE0B48016841F080717F
:100C60000160016801F080710591016841F08071B7
:100C70000160006800F08070059006B010BD0000B3
:100C800000600040000C0240403802400248816889
:100C9000027811448160704774000020032010B571
:100CA00000F096F8002000F005F800F023F800208E
:100CB00010BD000070B50D4D04464FF47A700C4A1B
:100CC00029781268B0FBF1F0B2FBF0F000F0F1FF10
:100CD00048B9102C07D200222146501E00F058F8C7
:100CE00000206C6070BD012070BD00007400002009
:100CF000800000201F4808B5016841F08051016064
:100D0000006800F0805000901A48001D016841F40E
:100D100080410160006800F480400090032000F0F2
:100D200057F800226FF00B00114600F031F8002256
:100D30006FF00A00114600F02BF800226FF0090056
:100D4000114600F025F80022501F114600F020F84F
:100D50000022101F114600F01BF80022901E1146C1
:100D600000F016F80022BDE80840501E114600F0C1
:100D70000FB8000040380240410900F01F0289000E
:100D8000012001F1E0219040C1F80001704700000E
:100D90000E4BF0B41B680D46C3F30223C3F10706E4
:100DA000042E00D90426191D072901D2002300E0D2
:100DB000DB1E012404FA06F19C40491E2940641EF2
:100DC000994014402143F0BC01F072BA0CED00E0F0
:100DD000064900F0070210B54FF6FF040868044BFF
:100DE000204040EA02201843086010BD0CED00E0EE
:100DF0000000FA051848F8B5016841F0805101601B
:100E00000068164C00F080500090206840F480305C
:100E10002060FFF757FE4FF47A76054605E000BFE5
:100E2000FFF750FE401BB0420FD86068C003F7D5F3
:100E3000206840F400302060FFF744FE054606E0DD
:100E4000FFF740FE401BB04201D90320F8BD6068A7
:100E50008003F5D50020F8BD403802400070004006
:100E60002DE9F84F1E4615468A460446FFF72AFE2E
:100E7000814694F8400001280ED001274FF0000869
:100E800084F8407094F84100012807D05FF0020018
:100E900084F84080BDE8F88F0220FBE74221C4F8C7
:100EA000448084F84110002220214B4620460096C1
:100EB00001F076FB0028EBD1216828688862216860
:100EC000686848622168A868C86220682969026861
:100ED00022F4400242F4800211430160E9684FF0BD
:100EE00000622046CAF82810514601F019FA012282
:100EF0004B4608212046009601F052FB0028C7D13E
:100F000022680821D16084F84170C1E72DE9F84FCB
:100F100017468B460446FFF7D5FD824694F84000FD
:100F200001280ED001264FF0000884F8406094F8A4
:100F30004100012807D0022584F840802846BDE8FA
:100F4000F88F0220FBE74FF00209C4F8448084F8D0
:100F500041900022202153462046009701F020FBBB
:100F60000500E9D100225946204601F0D9F9DBF805
:100F7000240058B90122534602212046009701F06F
:100F80000FFB0500D8D12168C1F80C9084F84160AE
:100F9000D2E70000F8B50446FFF794FD07465CB1C0
:100FA00094F84000012809D0012684F8406000250B
:100FB00094F8410020B10BE00120F8BD0220F8BDFB
:100FC00084F84050204600F045F841F28830A06493
:100FD00020686FF0FF03A168026803EB012322F48D
:100FE000F85119430160A06C002220213B4600907B
:100FF000204601F0D5FA30BB2268D4E9077C94F88A
:1010000004E0E16813683943104F4CEA0E6EDFF8D4
:1010100040C03B4041EA0E01194311602168D4E908
:101020000527B4F810E04B683A4303EA0C0343EA9F
:101030000E431A434A6021680A6842F001020A60BE
:10104000656484F8416084F84050F8BD2FFFFF00CC
:10105000FEF8E0FF2DE9F043006887B019498842A7
:101060002DD11948016841F0020101600068022495
:101070000025DFF8589000F002000590032669462D
:101080000927C0208DE8F1004846FFF725FC300213
:101090004FF00A088DE8710169464846FFF71CFCCD
:1010A000042069468DE8F100094F3846FFF714FC2B
:1010B000402138468DE872016946FFF70DFC07B004
:1010C000BDE8F083001000A0383802400014024050
:1010D000000402402DE9F84F15460E460446FFF77E
:1010E000F1FC82462068816994F8403000F12009C3
:1010F000012B0DD001274FF0000884F8407094F8C0
:101100004120012A06D0022084F84080BDE8F88FF3
:101110000220FBE7C4F844809EB3222284F84120D9
:101120000269521CA2630269521C6263266342690F
:1011300022F0406242F080624261206881610DE0ED
:101140000621204601F02CFAC0B999F80020206B46
:10115000411C21630270A06B401EA063A06B53462C
:101160004FF0010200950028EAD14FF0020120461D
:1011700001F016FA10B922680221D16084F841709A
:10118000C2E7FFE7616C012041F008016164BBE741
:101190002DE9F84F15460E460446FFF793FC94F8E8
:1011A000401082462068012900F120090ED0012755
:1011B0004FF0000884F8407094F84110012907D0DE
:1011C0005FF0020084F84080BDE8F88F0220FBE762
:1011D000C4F844807EB3122184F841100169491C8F
:1011E000E1620169491CA1626662416921F04061C6
:1011F00041610DE00421204601F0D2F9C0B9606AD6
:10120000411C6162017889F80010E06A401EE062CA
:10121000E06A53464FF0010200950028EAD14FF0F2
:101220000201204601F0BCF910B922680221D16008
:1012300084F84170C6E7FFE7616C012041F00801C6
:101240006164BFE72DE9F84F04460078DFF8249485
:101250004FF000063746C0070ED0D9F8001021F431
:101260000001C9F80010D9F80010626B1143C9F8E9
:101270000010606B00B90126FE4D20688435000324
:101280000ED5E16B286820F4401008432860E06B1D
:10129000B0F5801F01D010B102E0012600E0012767
:1012A00020684FF4800BC0020CD5216C286820F414
:1012B000400008432860206C584501D1012601E018
:1012C00000B901272068C10100D50126800666D536
:1012D000E8483830016841F0805101600068DFF86B
:1012E00098A300F080500090DAF8001041F480716B
:1012F000CAF80010FFF7E6FB804605E0FFF7E2FBC7
:10130000A0EB080064287DD8DAF80000C005F5D508
:10131000DFF8608308F16808D8F8000010F4407026
:101320002AD0218E01F44071814225D0D8F80010D6
:10133000D8F8002021F4407142F48032C8F800202F
:10134000D8F8002022F48032C8F80020C8F8001035
:10135000D8F80000C0070FD0FFF7B4FB824607E0C3
:10136000FFF7B0FBA0EB0A0141F288308142CAD8F6
:10137000D8F800008007F3D5206BC0F301210329C2
:101380007ED0D9F8001021F4F811C9F80010228E8F
:10139000D8F80010C2F30B021143C8F800102078EF
:1013A000C00607D5286820F0807028602868A16BE7
:1013B000084328602188AF488830490405D5626E0B
:1013C000016821F44031114301602188090405D5E9
:1013D000A26E016821F44021114301602168C90314
:1013E00005D5E26E016821F44011114301602168C6
:1013F000890305D5226F016821F440011143016082
:10140000217800E034E1490605D5626C016821F0DD
:101410000301114301602178090605D5A26C01681A
:1014200021F00C01114301602188C90505D5E26C4A
:10143000016821F03001114301602188890505D53B
:10144000226D016821F0C001114301602188490526
:1014500005D5626D016821F4407111430160218856
:10146000090505D5A26D016821F4406111430160B1
:101470002188C90407D5E26D016821F4405100E0DC
:101480005FE0114301602188890405D5226E01685F
:1014900021F44041114301602168490205D5A26F42
:1014A000016821F080611143016021684FF0006AFA
:1014B000890209D5E26F016821F0006111430160E2
:1014C000E16F514500D1012721680A0700D50127A6
:1014D000490305D5626F016821F040711143016035
:1014E0002168090206D5D4F88020016821F08051D6
:1014F000114301602168490106D5D4F884200168B0
:1015000021F00051114301602068000106D5D4F894
:101510008810286820F00070084328602068C00008
:1015200006D5D4F88C10286820F080600843286025
:10153000DFF84891012E0ED02068B0F1007F0AD06C
:101540008FE04F4AD9F80030104023F4F8120243DC
:10155000C9F800201BE7D9F800004E4620F0806053
:10156000C9F80000FFF7AEFA804605E0FFF7AAFAD7
:10157000A0EB080064287BD830680001F6D42178FD
:101580003C487C30C90712D0616B81B9237A62680C
:101590000168D0F800C09201C1F3014142EA014262
:1015A000CCF3036142EA016141EA03710160216801
:1015B0000A0303D5E26BB2F5801F04D0C9021AD525
:1015C000216C594517D16368016894F80CC0026812
:1015D0009B01C1F3014143EA0141C2F3027241EAB6
:1015E0000C6141EA027101602968626A21F01F0101
:1015F000521E114329602168C90110D5238A6268EF
:101600000168D0F800C09201C1F3036142EA0342CD
:1016100042EA0162CCF3027142EA01710160216881
:1016200089010CD56168228A237B94F808C089015E
:1016300041EA024141EA036141EA0C71016031680B
:10164000B04641F080613160FFF73CFA064604E0A5
:10165000FFF738FA801B64280AD8D8F80000000188
:10166000F6D5E7B3D9F800004E4620F0805009E0E7
:101670007BE0000008380240007000400038024063
:10168000FFFCFF0FC9F80000FFF71CFA074604E053
:10169000FFF718FAC01B642867D83068C043800081
:1016A000F6D5216835480A0301D5E26B1AB1C902A3
:1016B0001DD5216CD9B963690168277E02689B0139
:1016C000C1F3014143EA0143C2F3027143EA0762F5
:1016D00042EA0171016029686FF0FF0300E04BE00E
:1016E000A26A21F4F85103EB022211432960216818
:1016F000890212D5E16F51450FD1238C62690168CF
:1017000007689201C1F3036142EA034242EA0162BF
:10171000C7F3027142EA017101602178090716D509
:1017200061690268D0F800C08B01277FC2F30362B1
:10173000CCF3014143EA014141EA026141EA077108
:1017400001602868E16A20F440300843286030686E
:1017500040F080503060FFF7B5F9044608E000BF64
:10176000FFF7B0F9001B642802D90320BDE8F88F09
:101770003068C0438000F3D40020F7E78838024087
:101780002DE9F04705000F4663D0444E306800F065
:101790000F00B84209D2306820F00F0038433060A3
:1017A000306800F00F00B84253D128683C4C8107E4
:1017B00012D5400703D5206840F4E0502060287817
:1017C000000703D5206840F460402060A9682068C5
:1017D00020F0F000084320602878C0072AD0304964
:1017E00068680839012810D00968022810D08907D4
:1017F00000292EDA216821F0030101432160FFF75F
:1018000061F9804641F288390DE009688903EFE704
:101810008901EDE7FFF756F9A0EB0801494502D928
:101820000320BDE8F0876868216801F00C01B1EB86
:10183000800FEFD1306800F00F00B8420BD930684C
:1018400020F00F0038433060306800F00F00B842DD
:1018500001D00120E5E72878400705D5E968206830
:1018600020F4E050084320602878000706D5286956
:10187000216821F4604141EAC000206000F03CF89A
:101880002168084AC1F30311515CC8400649086049
:101890000020FFF70FFA0020C3E70000003C0240E1
:1018A00008380240B8520008800000200148006853
:1018B000704700008000002004490548096800685E
:1018C000044AC1F38221515CC84070470838024085
:1018D00080000020C85200080449054809680068D3
:1018E000044AC1F34231515CC84070470838024095
:1018F00080000020C8520008154910B51548096835
:1019000011F00C0213D01449042A0FD0082A0ED16A
:101910000F4C241F2268236802F03F025B0207D5A8
:101920002068C0F38810A0FB010106E0084610BD46
:101930002168C1F38811A1FB00010023FEF778FCA8
:101940002168C1F30141491C4900B0FBF1F010BD11
:10195000083802400024F40040787D012DE9F84F5A
:1019600005004FF000076ED02878DFF82093A9F12A
:10197000040AC007AAF104044CD0D9F80010484664
:10198000C1F38101012908D00068C0F38100022859
:101990000AD1DAF80000400206D52068800339D564
:1019A00068680028DFD035E06868B0F5803F0BD06C
:1019B00010B1B0F5A02F11D0206820F48030206045
:1019C000206820F4802002E0206840F4803020600D
:1019D000686890B1FFF776F806460AE0206840F4A0
:1019E00080202060F0E700BFFFF76CF8801B6428C0
:1019F00072D820688003F7D50CE0FFF763F806463D
:101A000005E000BFFFF75EF8801B6428F0D820686F
:101A10008003F7D42878800742D5D9F800104846CB
:101A200011F00C0F08D00068C0F3810002280BD120
:101A3000DAF80000400207D42068800718D5E8686B
:101A4000012800D114E01EE1E8680028206817D0C2
:101A500040F001002060FFF735F8064605E000BFC2
:101A6000FFF730F8801B0228C2D820688007F7D51E
:101A70002869216821F0F80141EAC00020600FE0E8
:101A800020F001002060FFF71DF8064605E000BFCA
:101A9000FFF718F8801B02281ED820688007F7D4AB
:101AA0002878000729D5794869696C300029804673
:101AB000016812D041F001010160FFF703F806460A
:101AC00005E000BFFEF7FEFF801B022804D8D8F80F
:101AD00000008007F6D510E089E021F001010160E7
:101AE000FEF7F0FF064604E0FEF7ECFF801B02283D
:101AF0007DD8D8F800008007F6D4287840076BD549
:101B0000DFF8888108F13808D8F80000C0000BD44D
:101B1000D8F8001041F08051C8F80010D8F8000043
:101B2000012700F08050009059480168C90512D47F
:101B30000168834641F480710160FEF7C3FF0646E9
:101B400005E000BFFEF7BEFF801B64284FD8DBF81E
:101B50000000C005F6D54D4EA868683601280AD0A9
:101B600008B1052811D0306820F0010030603068DD
:101B700020F0040002E0306840F001003060A86806
:101B8000A0B1FEF79FFF83460CE0306840F00400F0
:101B90003060F0E7FEF796FFA0EB0B0141F28830D2
:101BA000814268D830688007F4D50EE0FEF78AFFDE
:101BB000834607E0FEF786FFA0EB0B0141F2883079
:101BC000814258D830688007F4D42FB1D8F800107B
:101BD00021F08051C8F80010A869E0B3D9F80010CE
:101BE000C1F3810102294ED00228206800E042E0C2
:101BF00020F08070206003D0FEF764FF05463DE0D2
:101C0000FEF760FF064604E0FEF75CFF801B02283B
:101C100031D820688001F7D4D5E90921DFF874C0F4
:101C2000D5E9070695F830304F0895F82C10304369
:101C30000CEB074545EA8212104340EA016040EA96
:101C40000370CAF80000206840F080702060FEF742
:101C500039FF054605E014E0FEF734FF401B02287B
:101C600009D820688001F7D50BE000BFFEF72AFFF6
:101C7000401B022802D90320BDE8F88F20688001AC
:101C8000F4D40020F8E70120F6E70000083802400D
:101C9000007000400000FFFF04284FF0E0200169C1
:101CA00003D021F004010161704741F00401FAE71B
:101CB0007047401EB0F1807F10B501D3012010BDE8
:101CC0004FF0E02460610F21601700F0F1FA00206E
:101CD000A0610721216110BD10B5FFF7E9FF10BD1C
:101CE0007047000070B501680446C8690A688B68CF
:101CF00010F00F0F5CD003F0010502F490762E4334
:101D000069D0C60707D0D60505D501260E62E16E5B
:101D100041F00101E166810708D5D90706D02668A0
:101D200002213162E16E41F00401E166410708D50C
:101D3000D90706D0236804211962E16E41F002013F
:101D4000E16601070AD502F02001294306D0236885
:101D500008211962E16E41F00801E166E16E002997
:101D600032D0800604D5900602D5204600F09CFDB6
:101D7000E06E000703D420688068400625D5204621
:101D800000F084FD2068816849061AD5816821F039
:101D900040018160606EA0B12F490165606EFEF761
:101DA00035FC002810D0606E016DBDE8704008471A
:101DB000830610D593060ED52046BDE8704000F08E
:101DC00073BD2046FFF78CFF70BD2046FFF788FFEC
:101DD0000020E06670BD03062FD513062DD594F8BC
:101DE00069002128F6D1B4F8520020B1A068B0F5FE
:101DF000805F0AD00BE0086820F08000086020684F
:101E0000016841F04001016070BD206960B1E06C83
:101E1000411CE16421680078C1F82800B4F8520040
:101E2000401EA4F8520070BDE06C0088C0F30800AA
:101E30008862E06C801CE064F0E74006F3D5500651
:101E4000F1D50B682022204623F040030B6084F874
:101E5000692000F006F970BD7928000810B504006B
:101E600003D094F8690010B107E0012010BD0020F4
:101E700084F86800204600F027F8242084F86900E0
:101E80002068016821F001010160204600F048FD52
:101E90000128EBD0606A10B1204600F069FC206890
:101EA000416821F4904141602068816821F02A0155
:101EB00081602068016841F0010101602046BDE8B1
:101EC000104000F0B9BC00002DE9F0432D49074651
:101ED000006887B0884252D12B48016841F0100158
:101EE000016000680024022100F0100005904FF40A
:101EF000C06007238DE8130003222448CDE90323A3
:101F00006946FEF7E9FC224E4FF48069214A4FF002
:101F1000006830463260C6E90184C6E9034974614D
:101F2000B461F46134627462FEF752FC18B17B2133
:101F300019A000F0B2FE164D40237E666035B763EF
:101F400005F10800134A783280E818026C612846CF
:101F5000AC61EC612C626C62C5E90028FEF738FCCC
:101F600018B18D210CA000F098FE00223D662520BE
:101F70001146AF63FEF70CFF2520FEF7FDFE07B00C
:101F8000BDE8F083001001404438024000000240E8
:101F9000FC250020406402402E2E2F5372632F75C3
:101FA000736172742E630000704700002DE9F843DE
:101FB000044690F869001F4616460D4620284ED16B
:101FC000C5B1BEB194F86800012848D0012284F858
:101FD000682021214FF00008C4F86C8084F8691053
:101FE0005034FEF76FFD268081466680503C4FF4EA
:101FF000805619E00120BDE8F88300BFB4F8520014
:10200000401EA4F8520000224B4680212046009733
:1020100000F0B2FDA0B9A068B04201D1206988B13A
:1020200015F8010B21688862B4F852000028E5D148
:1020300000224B4640212046009700F09DFD38B11C
:102040000320D8E735F8020B2168C0F30800EAE75F
:10205000202184F86910002084F86880CBE70220F2
:10206000C9E77047FEE700000D4808B5016841F474
:102070008001016000680022114600F48000009099
:102080003A20FEF785FE3A20FEF776FE0022462033
:102090001146FEF77DFEBDE808404620FEF76CBE07
:1020A000303802400449054810B5FEF78BFA024962
:1020B000491E087010BD00006D000020580000206F
:1020C0002F48F0B5016887B041F004010160016854
:1020D00001F004010591016841F0200101600168EF
:1020E00001F020010591016841F080010160016863
:1020F00001F080010591016841F001010160016872
:1021000001F001010591016841F0020101600168DF
:1021100001F002010591016841F0080101600068C9
:102120004FF4E056174F002200F0080031460590AA
:102130003846FEF7C1FC002469464FF40050029473
:10214000CDE900041048FEF7C7FB104801250095B3
:102150006946CDE901040E48FEF7BEFBCDE90065F6
:10216000CDE9025469463846FEF7B6FB0022062048
:102170001146FEF70DFE0620FEF7FEFD07B0F0BD8E
:1021800030380240001C02400008024000001110DC
:10219000000002401648002110B5144C0123154AD6
:1021A0000460C0E90121C0E9033141618161C1617D
:1021B0000162FEF7E3FC18B14C210FA000F06DFDA9
:1021C0000B480021FEF784FC18B153210AA000F04F
:1021D00064FD07480021FEF7A7FC002805D0BDE8F4
:1021E00010405A2104A000F058BD10BD006000400E
:1021F000F42400205B3D30002E2E2F5372632F6994
:1022000032632E63000000002DE9F0410C4A0021EA
:102210000C4801230424560D1025C0E90561C16155
:102220001727016280E8BC00FEF7B4FE002805D045
:10223000BDE8F0414C2104A000F02FBDBDE8F081C5
:10224000001000A0402500202E2E2F5372632F7106
:102250007561647370692E63000000000E480021F0
:1022600010B50C4C0C224FF4E1330460C0E901318D
:10227000C160C0E904128161C16101624162FFF77E
:10228000EDFD002805D0BDE81040512103A000F06D
:1022900004BD10BD001001408C2500202E2E2F53B0
:1022A00072632F75736172742E630000FEE77047CE
:1022B000090700284FEA116106DA00F00F0000F16B
:1022C000E02080F8141D704700F1E02080F8001431
:1022D0007047704730B595B001220021052407945E
:1022E00013061502CDE90D51CDE90F130C91102302
:1022F0001291940513911491CDE90112CDE90332A5
:10230000CDE9051401AA0346044807A9FEF7A8FD74
:10231000002800D0012015B030BD0000402500206D
:102320002DE9F0434B6A4FF040652BB1AA4203D030
:1023300004688B6A5B1E23618B69002B68D00C6A72
:10234000B4B303688C68DC61CC69FCB1D1E90B38AB
:10235000D1F824C04E6B8F8A43EA080346EA0C0684
:1023600033430E6A43EA8743D1E9037C43EA0C0313
:1023700033438E693B430F682343046833433B4335
:1023800065E0006849688161BDE8F083D1E90B36FA
:102390004F6A4C6B8D8A33433C430E6923430C6A6E
:1023A00043EA85438D693343096823432B4362E045
:1023B000FFE7CC69B4F1000918D0D1E90B484F6AA6
:1023C0004E6BB1F814C044EA08043E430F6834432E
:1023D000CE6844EA8C44344344EA09041C4303684D
:1023E0003C431443AA425C61CBD1CDE7D1E90B4613
:1023F0004F6A4D6BB1F814C034433D4300682C4321
:10240000096844EA8C441C430C4314434461BBE711
:102410000B6AABB303688C68DC61CC69E4B1D1E9C9
:102420000B38D1F824C04E6B8F8A43EA080346EA82
:102430000C0633430E6A43EA8743D1E9037C43EA3F
:102440000C0333438E693B432343046833431343F4
:10245000AA42636195D197E7D1E90B364F6A4C6B7D
:102460008D8A33433C430E6923430C6A43EA854318
:1024700089693343234300680B431343436183E774
:10248000FFE7CC6984B1D1E90B384F6A4E6BB1F8E4
:1024900014C043EA08033E433343CE6843EA8C4307
:1024A000334323430468D2E74C6A002C9DD0D1E922
:1024B0000B368F8A4D6B0168334325432B4343EA28
:1024C0008740104348615FE730B58FB04FF48075A7
:1024D0000020690103919F240094CA020590CDE970
:1024E0000650032341F28834CDE90802CDE90A30D1
:1024F0000C9022460D9069460D48FEF707FD18B175
:102500000CA000F0CBFBFEE709480EA92246FEF71F
:10251000E1FD18B107A000F0C1FBFEE7BDF83900EE
:102520009DF838100FB040BA61F31F4030BD000075
:1025300040250020736F6D657468696E672077723F
:102540006F6E67202E2E2E2E0D0A000010B58EB055
:1025500041F2883400204FF4807166220092CDE968
:102560000610089022460990694605900B900C9041
:102570000D900A48FEF7CAFC60B999200090074800
:1025800022466946FEF7C2FC20B92046FFF7A2FEAC
:10259000002800D001200EB010BD00004025002012
:1025A0002DE9F041984616460F460446069D12E076
:1025B000681C10D02DB1FEF785FAA0EB0800A842E8
:1025C00009D9042084F84100606C40F00100606487
:1025D0000120BDE8F08120688068384000D00120EB
:1025E000B042E5D10020F4E7F0B595B041F288356E
:1025F00000242A464FF4807006210691CDE90C0490
:102600000E9406A911480F940B94119412941394EC
:10261000FEF77CFCB0B90220009001214305102296
:1026200005260696CDE90221CDE90443C7050190B0
:10263000CDE90F71054806A92B466A46FEF710FC46
:10264000002800D0012015B0F0BD0000402500207A
:10265000704710B5FEF71AFBBDE81040FFF73CBB12
:102660002B4830B5B7B0016841F080510160006877
:1026700000F0805036902748016841F440410160E5
:1026800000680224192300F44040369001202C9366
:102690004FF4D87582050104CDE92A42CDE92D54C5
:1026A0002F94CDE9240124A8FFF758F900B1FEE7E3
:1026B000FEF7A0FB00B1FEE74FF480524FF4A051AB
:1026C0000025CDE9341231AA0F20072182E831001C
:1026D00031A8FFF755F800B1FEE70F4811951C959A
:1026E00000906846FEF7AEFD00B1FEE7FFF7DEF8AA
:1026F0004FF47A71B0FBF1F0FFF7DBFA0420FFF73B
:10270000CBFA0022501E1146FEF742FB37B030BD17
:10271000403802400070004040000200104A30B5CE
:102720001048146800210F4B44F4700414600833FF
:1027300005680D4A0D4C45F00105056019600368F8
:10274000051D1340074A03600C322C600568E30541
:10275000034C25F480250560803C1160236030BD6A
:1027600088ED00E000380240FFFFF6FE1030002444
:1027700090F82410C90706D00168836A4A6822F4D9
:1027800000321A434A6090F82410890706D5016880
:10279000C36A4A6822F480321A434A6090F82410CF
:1027A000490706D50168036B4A6822F480221A4360
:1027B0004A6090F82410090706D50168436B4A68FF
:1027C00022F400421A434A6090F82410C90606D544
:1027D0000168836B8A6822F480521A438A6090F8F9
:1027E0002410890606D50168C36B8A6822F400525A
:1027F0001A438A6090F82410490611D50168036CC9
:102800004A6822F480121A434A60016CB1F5801FB5
:1028100006D10168436C4A6822F4C0021A434A6038
:1028200090F82410090606D50168826C486820F4E7
:10283000002010434860704738B500250446C5663F
:10284000FEF740F903462068006800070BD56FF0DB
:102850007E400090002220464FF4001100F08CF9D9
:1028600008B1032038BD202084F8690084F868503E
:1028700084F86A00002038BD10B5806B0021A0F8F4
:102880005A10A0F85210FFF72BFA10BD0168202251
:102890000B6823F490730B6001688B6823F00103CD
:1028A0008B6080F86A20704710B590F86A10B0F815
:1028B0005C202229016805D0886940F00800886101
:1028C000022010BD8368B3F5805F01D1036973B145
:1028D0004B6A416D13404A1C42650B70B0F85A10A8
:1028E000491E0904090CA0F85A1008D016E04B6ADA
:1028F000416D13400B80416D891C4165EEE7016815
:1029000020220B6823F490730B6001688B6823F01E
:1029100001038B6080F86A20FFF746FB002010BDA2
:102920002DE9F04704468068874B884F2668D4E934
:102930000415E2690843D6F800C0102115430022AF
:10294000284315460CEA030C814B4CEA000CC6F8F0
:1029500000C04FF400492068D4F80CC0466826F443
:10296000405646EA0C0646602668D4F82080A069E6
:10297000D6F808C040EA08002CF4306C4CEA000C91
:10298000C6F808C02068B8420AD11B6813F00303D8
:1029900052D0012B7AD0022B76D0032B79D177E05D
:1029A0006C4EB0420AD11B6813F00C036AD0042BA2
:1029B0006CD0082B68D00C2B6BD169E0664EB0420E
:1029C0000AD11B6813F030035CD0102B5ED0202B93
:1029D0005AD0302B5DD15BE0604EB0420AD11B680B
:1029E00013F0C0034ED0402B50D0802B4CD0C02BC6
:1029F0004FD14DE05A4EB0420DD11B6813F44073D5
:102A000040D0B3F5807F41D0B3F5007F3CD0B3F523
:102A1000407F3ED13CE0534EB0420FD11B6813F4CF
:102A2000406309D0B3F5806F30D0B3F5006F2BD081
:102A3000B3F5406F2DD12BE001212AE04A4EB04280
:102A40000DD11B6813F440531CD0B3F5805F1DD02B
:102A5000B3F5005F18D0B3F5405F1AD118E0434ECC
:102A6000B04216D11B6813F440430BD0B3F5804F2E
:102A70000CD04B4508D0B3F5404F0AD108E005E033
:102A800002E0FFE7002104E0022102E0042100E06F
:102A90000821E6694E452AD109291FD2DFE801F055
:102AA0000508141E171E1E1E1A00FEF705FF01E082
:102AB000FEF712FF0146D4F80400490001EB500173
:102AC000B1FBF0F082B20AE029496068F6E7FEF750
:102AD00013FFEFE760684FF48031EFE701252168CD
:102AE00022F00F00C2F342021043C86028E0092917
:102AF00025D2DFE801F005080B24102424241C0053
:102B0000FEF7DAFE09E0FEF7E7FE06E06168194A23
:102B100002EB51020EE0FEF7EFFE0146D4E9002081
:102B200001EB5001B1FBF0F080B2D06008E06168C9
:102B300009EB5102B2FBF1F189B2C16000E001255D
:102B40002846BDE8F0870000F369FFEF0010014060
:102B5000903802400044004000480040004C0040D3
:102B6000005000400014014000780040007C00400C
:102B70000048E8010024F4002DE9F041984617468A
:102B80000E460446069D1DE0681C1BD02DB1FDF7C6
:102B900099FFA0EB0800A84214D32168202000224E
:102BA0000B6823F4D0730B6021688B6823F001035A
:102BB0008B6084F8690084F86A00032084F8682038
:102BC000BDE8F0812068C06936EA000004D000202A
:102BD000B842D9D00020F3E70120F9E70148FFF718
:102BE00081B800008C25002010B500F031F80349B1
:102BF0000870BDE81040FDF7E3BB00005400002062
:102C0000052912D2DFE801F00F03060B0F004FF485
:102C1000206105E000204FF48051118070470121B0
:102C200011600020704700207047042070470000AA
:102C3000084606490978C90701D0032070471103E7
:102C40001A0301F5C001FDF7F1BB0000540000209C
:102C500010B5FFF739FC0749054A9042087802D1C0
:102C600020F0010001E040F001000870087810BD7C
:102C70001840EF005400002070B514030D4604F511
:102C8000C0042046FDF774FB4FF4805221462846CD
:102C9000FDF7F8FB002070BDFEE7FEE70FB4054B23
:102CA00010B503A9044A029800F018F810BC5DF8AA
:102CB00014FB0000054800088800002002E008C856
:102CC000121F08C1002AFAD170477047002001E0A6
:102CD00001C1121F002AFBD1704700002DE9FF4FF0
:102CE0008BB09A460F460546002606E025280BD0F5
:102CF00052460D9990476D1C761C28780028F5D116
:102D00000FB03046BDE8F08F0024A0460122604994
:102D100000E0044315F8013F203B02FA03F00842AB
:102D2000F7D128782E2817D115F8010F44F00404A4
:102D30002A280ED06FF02F022878A0F1300109293F
:102D40000AD808EB880102EB410100EB01086D1C79
:102D5000F2E757F8048B6D1C287869283ED006DC12
:102D60000028CDD063280BD0642804D136E0732826
:102D700010D075284BD052460D999047761C85E0AF
:102D800017F8040B8DF8000000208DF80100E946CB
:102D9000012003E057F8049B4FF0FF3061074FF02C
:102DA000000401D40AE0641C44450DDA8442FADBD5
:102DB00019F804100029F6D106E0641C8442FCDBFB
:102DC00019F804100029F8D1264404E019F8010B81
:102DD00052460D999047641EF8D257E001CF4FF04C
:102DE0000A0B002802DA40422D2102E0210504D519
:102DF0002B218DF82410012103E0E10705D02021CB
:102E0000F7E70DF1200908910CE00021F9E701CF67
:102E10004FF00A0BF9E75946FDF73BFA01F1300292
:102E200009F8012D0028F6D1ADEB090000F1200BC7
:102E3000600701D44FF00108D84502DDA8EB0B0074
:102E400000E000208046002406E009A85246005D0C
:102E50000D999047641C761C08988442F5DB04E0C9
:102E6000302052460D999047761CB8F10001A8F128
:102E70000108F5DC05E019F8010B52460D99904761
:102E8000761CBBF10001ABF1010BF4DC6D1C34E7E7
:102E90000928010010B504460022501EE27060634C
:102EA000204602F066F808B1042010BD04F2362076
:102EB00001F0F0FDA0F52A41553901D0032010BDE5
:102EC00094F83800E92805D0EB2814D194F83A009A
:102ED000902810D104F16E0001F0D1FD0749B1EB4B
:102EE000002F06D004F18A0001F0C9FD0449884290
:102EF00001D1002010BD022010BD00000046415449
:102F00004641543300E0401C02780AB18A42FAD1AB
:102F1000D0B27047F0B5154D0022134605EB0214F0
:102F200026685EB10768BE4209D166688768BE42FE
:102F300005D1A4684669B44204D000E00123521CC4
:102F4000022AEBD3022A01D069B904E04BB9022965
:102F500007D01220F0BD05EB02108089B0F5807F0C
:102F600001D00020F0BD1020F0BD0000C8260020D8
:102F700030B5064B0024214603EB0112156885424B
:102F800000D11460491C0229F6D330BDC8260020A8
:102F90000268C06A938952895343B1FBF3F1001D63
:102FA00004C81AB1914203D3891AF8E70020704788
:102FB000006808447047C269891E921E8A4201D87F
:102FC00000207047026B408901FB00207047000021
:102FD0002DE9F05F0C46824601F11A0001F05AFD1E
:102FE00078BB207801270026DFF8609000F03F00D2
:102FF0004FF6FF7B401E00EB800101EBC00500BFD8
:1030000019F80600204401F045FD80466FB1FF2D00
:1030100017D201F031FA07463AF815006D1C01F09D
:103020002BFA87420DD1474601E0D84509D1761CDD
:103030000D2EE5D32078400606D52FB13AF81500BD
:1030400010B10020BDE8F09F0120FBE786FE0208DA
:103050002DE9F04105680F00804606D001F026FCFE
:10306000022809D20120BDE8F0816E6916B1E86935
:10307000B04207D8012605E0411CF4D0E96981423D
:10308000F1D83E463446E869641CA04203D8022EBB
:103090004FF002040AD32146404601F007FC38B144
:1030A0000128E0D0411CDED0B442ECD10020DAE7A8
:1030B0004FF0FF3621463246284601F073FF30B903
:1030C00057B122463946284601F06CFF20B101284D
:1030D0000FD001242046C6E7D5E906016C61891EA0
:1030E000884201D8401EA861287940F0010028716B
:1030F000F0E73446EEE700002DE9F84F8846016816
:10310000002482462546D8F800700E69785D6D1C53
:1031100020282AD32F2823D05C2821D0FF2C48D266
:10312000A0F181017D290BD8795D6D1C01EB002098
:10313000A1F1400280B23F2A02D380397F2938D2E0
:10314000012101F073F95FEA000932D0B9F1800F73
:1031500012D2014673A0FFF7D5FE50BB0CE06D1CE8
:10316000795D2F29FBD05C29F9D07919C8F80010B6
:10317000202805D204250EE026F81490641CC5E72B
:10318000002508E006EB440030F8020C202801D0AE
:103190002E2802D1641E002CF4D1002026F8140041
:1031A0003CB10B2220210AF1240001F0DBFE0027B4
:1031B00003E00620BDE8F88F7F1C36F817002028B2
:1031C000FAD02E28F8D01FB145F0030500E0641EA8
:1031D0002CB106EB440030F8020C2E28F7D14FF04A
:1031E00000094FF0080BCDF8009000BF36F817002B
:1031F00007F101075FEA000824D0B8F1200F04D0DE
:10320000B8F12E0F04D1A74202D045F00305EDE737
:103210000098584501D2A74219D1BBF10B0F0FD02E
:10322000A74201D045F003050CD84FEA8961274633
:103230004FF008004FF00B0B4FEA11690090D5E7F3
:1032400045F003059AF82400E52846D048E0B8F197
:10325000800F404607D301F00FF9002101F0E6F896
:1032600045F002058046B8F1FF0F12D90099ABF185
:103270000100814204D345F00305CDF800B0B5E765
:10328000009851444FEA1822401C009081F82420F5
:103290001BE0B8F1000F04D0014625A0FFF732FE75
:1032A00018B15F2045F003050EE0A8F14100192890
:1032B00002D849F0020908E0A8F16100192804D8F1
:1032C000413080B249F001098046009A0099524489
:1032D000491C009182F8248088E705218AF824108F
:1032E000BBF1080F03D14FEA89604FEA1069C9F3B7
:1032F0008100032803D06FEA0901890701D145F055
:103300000205A90709D409F00301012901D145F0FB
:103310001005012801D145F008058AF82F5000203A
:1033200048E70000222A3A3C3E3F7C7F0000000034
:103330002B2C3B3D5B5D0000401E022812D20A4947
:1033400001EB00118889B0F5807F05D008B1401EDF
:1033500080B2888110B103E00020FAE70020086005
:103360000020704702207047C82600202DE9F04752
:10337000D0F800900021044600F0D6F900285CD176
:10338000471E2763FF25A846E169484601F0F1FD85
:10339000060051D1216A087850B1CA7AE52802F0B6
:1033A0003F02A27140D0130704D50F2A3CD105E09B
:1033B000042641E00F2A01D0E5B120E094F82F2047
:1033C000520633D4420606D591F80D8000F0BF00B6
:1033D000636905462363A84209D14A7B424506D169
:1033E000D9F81000FFF7F4FD08B16D1E00E0FF25CD
:1033F000EDB21BE0084601F0C5FE40451CD094F834
:103400002F00C00710D1D4F820100B2204F12400A3
:10341000521E11F8013B10F8015BA3EB050302D02B
:10342000002BF5D000E03BB1FF25276300212046AB
:1034300000F006F80600A7D03046BDE8F08700008F
:103440002DE9F04705464769C069894620372C6851
:1034500010B1B7F5001F02D30420BDE8F087A189A1
:10346000B7FBF1F201FB127100295FD1A969401C81
:103470004FF00008E86119B3A0896289B7FBF0F04A
:10348000521E104252D1284601F010FA0128064679
:103490001FD9701C36D0E069B04241D8B9F1000F95
:1034A00012D0A9692846FFF7D3FD06000FD0012EE0
:1034B0000FD0701C26D0204601F0B6FE10BB0AE0EB
:1034C0002089B0EB571F31D8C5F81C80C4E707200E
:1034D000C3E70220C1E7A289002104F1380001F00E
:1034E00041FD4FF0000831462046FFF764FD4FF0E4
:1034F000010960630DE000BF204684F8039001F0ED
:1035000093FE08B10120A8E7616B08F10108491C8E
:10351000616360894045EFD8616BA1EB080060638F
:1035200031462046AE61FFF746FDE8616F61A08934
:10353000B7FBF0F100FB1170204438302862002006
:103540008BE700002DE9F04F044690F82F008FB074
:1035500010F0A00FD4F8009003D006200FB0BDE803
:10356000F08FD9F81000002500E06D1C30F8151020
:103570000029FAD10C2204F12401029108A801F0DB
:10358000E7FC9DF82B00C00719D0402084F82F00DD
:103590000126D9F81020029808A9334601F03EF917
:1035A0002046FFF7E3FE10B9761C642EF1D3642E9B
:1035B0000FD00428D2D19DF82B0084F82F009DF85D
:1035C0002B00800707D50D200C35B5FBF0F56D1CE1
:1035D00002E00720C2E7012527680021204600F00D
:1035E000A3F888B90026E169384601F0C2FC58B951
:1035F000206A0078E5280AD048B10026204601213B
:10360000FFF71EFF0028EED0042812D012E0761C2F
:103610002846AE42F2D1451E0B9567D061696842DB
:1036200001EB4011204600F07FF85FEA000803D06C
:1036300076E00720804673E0029801F0A3FD4FF684
:10364000FF7B0C90E169484601F093FC5FEA0008BB
:1036500066D10B990F23D4F82080C9B20391D9F811
:1036600010100C980591002188F80D0008F11A003F
:1036700088F80B3088F80C1001F080FD03990027C2
:10368000DFF8A0A0491E01EB810202EBC10601E0B8
:103690005D4503D0059830F81650761C1AF80710CF
:1036A00001EB0800294601F069FD05B95D467F1C64
:1036B0000D2FEDD35D4505D0059830F8160008B103
:1036C000039803E0039840F04000039088F800005E
:1036D0000120002189F803002046FFF7B1FE5FEAD0
:1036E00000081DD10B98401E0B90ABD1E1694846F4
:1036F00001F03FFC5FEA000812D1206A202200217D
:1037000001F030FC206A0B22029901F021FC226AB0
:10371000012094F82F1001F01801117389F80300AB
:1037200040461BE786FE02082DE9F0410468B1F52A
:10373000001F0F4606463CD2F8063AD1B5687761BD
:1037400025B92078032806D3E56A25B16089A189C7
:1037500000FB01F812E02089B0EB571F29D9E06A7D
:1037600012E0304601F0A2F80546401C1FD0022DA1
:103770001FD3E069A8421CD9A7EB08072946474593
:10378000EFD22046FFF717FCC6E9065088B1A189A1
:10379000B7FBF1F10844F061A089B7FBF0F100FB41
:1037A00011702044383030620020BDE8F0810120E3
:1037B000FBE70220F9E700000849002210B50B5C86
:1037C0004BB901220A5401EB800208445168007C85
:1037D000096888470246104610BD0000E826002010
:1037E000044B30B403EB800418446368007C1B690D
:1037F00030BC1847E826002030B4054C04EB8005A7
:1038000020446C68007CA468A44630BC604700007B
:10381000E8260020034901EB800208445168007C3F
:1038200049680847E826002030B4054C04EB8005C1
:1038300020446C68007CE468A44630BC604700000B
:10384000E826002038B5044600F0D2FC00280CD150
:103850006946204601F011FD002806D12069FFF7D6
:103860006BFD002801D10021216038BD2DE9FF4FFB
:1038700091B01D4611A814468B461E9E01F08DF88E
:10388000002803DA0B2015B0BDE8F08FFE4951F88F
:10389000201009B100220A70C0B20490FFF78CFF1B
:1038A000C10701D00320EEE7400701D50A20EAE76F
:1038B000049803210EAAFFF793FF38B90E9828B198
:1038C000B0F5004F02D8411E084201D001200E90F1
:1038D0000498022106AAFFF783FF002872D1BDF8E1
:1038E0001800A0F50071B1F5606F6BD8411E084259
:1038F000F4D124B184423AD3B4F1807F37D8611E29
:103900000C4234D1B6FBF0FAB4FBF0F72C460AFBBC
:1039100000F1109100296ED0049801210AAAFFF746
:103920005FFF0028DAD14FEA0B710A986FEAA11104
:103930004FEA916948455ED3A0EB09000A908028C0
:1039400059D3802F13D85FEA8B714FF6F57240F68A
:10395000F57E07D50BF0070102297CD05FEACB7119
:1039600079D002E05FEACB7101D00226A2E01320F9
:1039700089E73D000ED10021C44B01254FEA504C90
:1039800001E06D00491C33F81180B8F1000F01D03F
:10399000E045F6D9B0FBF5F1BDF818304FF0200C3A
:1039A000CDF808C04FF0000CCDF81CC0914203EBDD
:1039B000810C0CF1070CBCFBF3F81CD9B44B9942F9
:1039C00019D830E05EE1B14B00214FEA103C0E3BCC
:1039D000012501E06D00491C33F81180B8F1000F9A
:1039E00001D0E045F6D9B0FBF5F1714504D90423C7
:1039F00003EB410307E070E00323012601EB4101E3
:103A0000491C03EB5103BDF818104FF480484FF0E8
:103A1000010C0B44CDF808C05B1EB8FBF1FCB3FBF6
:103A2000F1F8CDF81CC0032E029B09EB03010D91A8
:103A300001EB080C07990E9B6144A3F1010C0B44A8
:103A4000A3F1010323EA0C03A3EB010319D098446B
:103A500001EB051300E033E0A3EB090181423CD800
:103A60000299431A0799A3EB0803A3EB0101B1FBE9
:103A7000F5F1032E0F910ED0022E13D0012E2AD075
:103A80002DE0DDF808C09C44CDF808C0DDF834C056
:103A900063440D93DCE7914221D8F7B96F087FF4B6
:103AA00068AF1AE0914211D93FB94021B1EB450FFF
:103AB00003D36F003D0096D185E75FEA8B7107D590
:103AC000032656E76F00802FF4D906E0714506D82B
:103AD000002FF7D001E0714501D90E20D3E6BDF8E3
:103AE00018200021204601F03DFA0B22204669A152
:103AF00001F02EFABDF8181004F10B0001F03EFBA6
:103B00006573029881B204F10E0001F037FB0120C9
:103B10002074032E0ED0410204F1110001F02EFB9F
:103B20000A99B1F5803F07D289B204F1130001F080
:103B300025FB05E00021EFE704F1200001F016FB72
:103B4000F82060753F2104F1180001F017FBFF21F8
:103B500004F11A0001F012FB04F11C00494601F0C7
:103B600005FB8027032E27D000F015FF014604F146
:103B7000270001F0FBFA1FFA88F104F1160001F0AA
:103B8000FDFA292084F82470132284F8260044A129
:103B900004F12B0001F0DCF904F5FF704AF6552121
:103BA0000C9001F0EBFA049801234A462146FFF7F6
:103BB0003BFE002866D124E000F0EDFE014604F152
:103BC000430001F0D3FA04F12400414601F0CEFA9B
:103BD000022104F12C0001F0C9FA012104F13000A6
:103BE00001F0CCFA062104F1320001F0C7FA2920D5
:103BF00084F84070132284F842002EA104F147009B
:103C0000C8E7032E33D10498012309F106022146A7
:103C1000FFF70AFEBDF818200021204601F0A2F9A6
:103C20002949204601F0A2FA284904F5F27001F072
:103C30009DFA0F9904F5F470491E01F097FA0221DC
:103C400004F5F67001F092FA0C984AF6552101F04D
:103C500095FA0498012309F107022146FFF7E4FDD4
:103C60000498012309F101022146FFF7DDFD109AB6
:103C70000021204601F076F90D98032E6FF0070120
:103C8000029025E084E00000BC260020A2FE02088D
:103C9000F5FFFF0FEBFE904D53444F53352E300090
:103CA0004E4F204E414D452020202046415420209B
:103CB000202020004E4F204E414D45202020204600
:103CC00041543332202020005252614172724161CE
:103CD00002D0012E0DD00DE0204601F047FA201D44
:103CE0004FF0FF3101F042FA6FF0704104F108002B
:103CF00001E04249204601F039FA4746504657450F
:103D000000D83846029A8046034604982146FFF7B9
:103D10008BFDE8BBBDF818200021204601F022F9F8
:103D20000298B7EB080740440290E7D1032E00D079
:103D3000079D5046554501D9074600E02F46029A97
:103D400004983B462146FFF76FFD08BB0298ED1B28
:103D500038440290EDD1032E05D00A98B0F5803F8B
:103D600003D3062604E00C2602E0022E39D00126F9
:103D70005FEA0B7037D4BDF818200021204601F00F
:103D8000F1F80C984AF6552101F0F8F9002000E00E
:103D900031E004F5DF7543F6C1620121FE2328708E
:103DA000E8706970A9703F212E710A9E6B7109EB52
:103DB0000600B0FBF2F041EA9001A9714946E871B2
:103DC00005F1080001F0D2F90A9905F10C0001F0A3
:103DD000CDF90498012300222146FFF725FD50B9B3
:103DE00001E00426C4E7002204981146FFF7F8FC1E
:103DF00000283FF458AD012045E50000F8FFFF0022
:103E00002DE9F74181B0904602980090684600F095
:103E1000C4FD040003D50B2004B0BDE8F0810D4EB5
:103E2000002756F824501DB12846FFF7A1F82F703F
:103E30000198002800D0077046F8240002D0B8F19D
:103E4000010F01D00020E7E7002201A902A800F03D
:103E500053FBE1E7BC2600202DE9F7430500ADF553
:103E6000147D0BD002F03F06694695A8324600F05B
:103E700043FB04004FF0000805D0F6E009200DF5E3
:103E8000177DBDE8F083009810A90190016101A899
:103E9000959900F079FC04000ED19DF833000006DE
:103EA00001D5062408E0700801D0012100E00021BE
:103EB00001A8FFF72FF8044616F01C0F5DD04FF055
:103EC0000109C4B1042C10D16B49002002E0401C50
:103ED000022804D201EB00121268002AF7D102284E
:103EE00007D001A8FFF72EFB044646F008065CB198
:103EF000BBE01224B9E09DF80A0010F0110F48D180
:103F0000700701D50824B0E0300748D500F043FD24
:103F10000746099839460E3001F028F909983946C4
:103F2000163001F023F909992020C87209990098E8
:103F300000F092FD099900220746009801F002F96D
:103F4000099800211C3001F011F9009981F80390C3
:103F50001FB3D1F83490002201A8394601F0B8F817
:103F6000040009D10098494601F003F804000098C4
:103F7000A7F1010747610ED077E0002C75D19DF8BD
:103F80000A00C10601D504246FE0B10703D5C007BC
:103F900001D0072469E0300701D546F040060098BB
:103FA000406B68620998A862700801D0012100E0A6
:103FB000002101A800F010FD2861B8B3099900980C
:103FC00000F04AFDA86009981C3000F058FDC5F8C3
:103FD0002C800146E96005F1300000994FF48052D1
:103FE000296081460099C988A98000212E7585F82D
:103FF0001580C5F82080C5F8188000F0B3FFB00622
:1040000035D5EE689EB3AE610098A968478980896E
:1040100047430FE0284600F049FC0128014600D83C
:104020000224481C03D0F61B24B105E021E0012442
:10403000F61B01E0BE42EDD8E961B4B9009882896F
:10404000B6FBF2F302FB13628AB1FEF7B4FF80B154
:10405000009901238A89B6FBF2F202442A62487869
:104060004946FFF7C9FB10B10124C5F8008020467E
:1040700005E70224F9E70000C82600202DE9FE4FDD
:10408000154699460022044688461A6002A901F0A6
:10409000F4F8002812D1607D00280FD1207DC007E0
:1040A0000BD0A2690127E16804F1300B4FF0020A3E
:1040B000881A854200D9054695E00720BDE8FE8FA5
:1040C000029AA1699089B1FBF0F300FB1313002B56
:1040D0006AD1B1FBF0F65289521E164011D129B1B6
:1040E000E06A28B12046FEF753FF05E0A06803E030
:1040F000E169204600F0DAFB02281ED3411C4ED0B5
:10410000E061E1690298FEF756FFB0B102993044D0
:1041100001908889B5FBF0F0009038B3009A488987
:104120003244824201D9801B009048784146DDE943
:104130000032FFF761FB90BB03E0022084F815A07A
:10414000BCE7207D00060CD5216A0198081A009969
:10415000884206D202998A89594600FB028000F003
:10416000F7FE029886890098464332E0226A019859
:10417000824217D0207D000609D548780123594690
:10418000FFF752FB58B9207D00F07F0020750298A0
:104190000123019A59464078FFF72EFB10B1012008
:1041A00067758BE7019820620298A1698089B1FB4D
:1041B000F0F200FB1212861AAE4200D92E46B1FB75
:1041C000F0F200FB1210324601194046303100F087
:1041D000BFFEA169AD1BB0448819A061D9F80000E9
:1041E0008119C9F80010002D7FF46AAF002065E73F
:1041F000F8B50446694601F040F800280ED1217D4B
:104200004A060BD508060ED500980123226A04F150
:1042100030014078FFF708FB08B10120F8BD207D90
:1042200000F07F00207500F0B6FB616A064600983A
:1042300000F09FFE0028F1D1A56A2946E87A40F0F7
:104240002000E872A268206800F07CFFE16805F1B8
:104250001C0000F08BFF05F11600314600F086FFD0
:10426000002105F1120000F089FF00980121C170C2
:1042700000F096FF217D01F0BF012175F8BD2DE909
:10428000FE4F154699460022044688461A6002A948
:1042900000F0F3FF002806D1607D002803D1207DC7
:1042A000800702D40720BDE8FE8FA069012704F132
:1042B000300B4FF0020A411900D3C543ADE0029A1A
:1042C000A1699089B1FBF0F300FB1313002B7AD1A5
:1042D000B1FBF0F65289521E164018D129B1E06A9E
:1042E00038B12046FEF754FE07E0A06838B9002137
:1042F00000E0E1692046FEF7ABFE00287DD00128F2
:1043000030D0411C59D0A168E06101B9A060207D86
:1043100000060BD502980123226A59464078FFF720
:1043200083FAC8BB207D00F07F002075E169029808
:10433000FEF741FEB0B10299304401908889B5FB87
:10434000F0F0009048B3009A48893244824201D983
:10435000801B009048784146DDE90032FFF764FA9F
:10436000D0B903E0022084F815A09CE7216A0198E7
:10437000081A009988420AD202998A8900FB0281B0
:10438000584600F0E5FD207D00F07F002075029882
:104390008689009846432FE00FE0FFE7226A0198E4
:1043A00082420ED0E268A06990420AD24878012386
:1043B000019A5946FFF720FA18B10120677572E794
:1043C00001E0019820620298A1698089B1FBF0F2B6
:1043D00000FB1212861AAE4200D92E46B1FBF0F253
:1043E00000FB1210324641462044303000F0B0FD50
:1043F000207D40F08000207500E011E0A269B0440B
:10440000E1689019A061884200D80846E060D9F8B8
:104410000000AD1B8119C9F80010002D7FF44FAFCB
:10442000207D40F04000207500203CE770B58028DA
:104430001BD345F2205209B10D4D00E00D4D002374
:104440001024D11A01EBD17103EB610135F8216021
:10445000864206D001D20B4600E00A46641EF0D127
:1044600004E01CB105EB8100408870BD002070BDE8
:1044700054A70108D052000830B5B0F5805F01D2D2
:104480001B4900E01B4931F8022B002A15D090424D
:1044900013D331F8024B52FA84F5230A8542E4B271
:1044A00021D9092B09D2DFE803F005090E111315F4
:1044B00017191B00801A31F8100030BD811A01F065
:1044C0000101401A00E0103880B230BD2038FBE70F
:1044D0003038F9E71A38F7E70830F5E75038F3E7EE
:1044E000A0F5E350F0E7002BCDD101EB4401CAE782
:1044F000D8FB0208CAFD02082DE9FF4100279046BB
:104500000E460F6000F049FA050003D50B2004B0F9
:10451000BDE8F081984850F825409CB1346008F01F
:10452000FE06207820B16078FFF774F9C1070BD040
:104530002770B846E8B26070FFF73EF9C10708D0AF
:104540000320E4E70C20E2E70EB1400704D400208A
:10455000DDE71EB1400701D50A20D8E760780221C7
:1045600004F10C02FFF73CF9F0BBA089A0F5007143
:10457000B1F5606F40D8411E08423DD1002620466B
:104580003146FEF787FC022822D100254FEA0D07AD
:1045900004EB051090F8FA1100F5FB7019B1083022
:1045A00000F06DFA00E0002047F825006D1C042D96
:1045B000EED3002557F8256036B131462046FEF788
:1045C00069FC022801D203E003206D1C042DF1D305
:1045D000042811D002287AD204F1430000F05AFADC
:1045E000A189884273D100E006E004F14E0000F09A
:1045F00051FA010002D006E0012088E704F15C00D6
:1046000000F03DFA014694F848502162012DA57052
:1046100001D0022D5BD14D4394F845006081E8B391
:10462000411E084253D104F1490000F033FAA18938
:1046300020814909B0FBF1F201FB120070BB04F1CB
:104640004B0000F027FA070004D104F1580000F0F5
:1046500016FA074604F1460000F01CFA020036D0B4
:10466000A089511923894009B3FBF0F001448F421E
:104670002DD360897F1AB7FBF0F078B103274FF68E
:10468000F57C604500D8022740F6F57C604500D8EF
:104690000127801C32443144216300E017E0E061CF
:1046A000032FC4E9096214D08BB15119E162022FC2
:1046B00020D000F0010100EB400001EB5000A18987
:1046C000401E226A0844B0FBF1F0904214D90D203C
:1046D0001DE704F1620000F0DDF90028F7D1208920
:1046E0000028F4D104F1640000F0C9F9E169E06246
:1046F0008800E4E74000E2E74FF0FF31A16180204D
:104700006161032F20712CD104F1680000F0C2F91F
:10471000012826D1711C204600F02BFC08BB04F2B6
:10472000362084F8048000F0B5F9A0F52A41553907
:1047300017D104F1380000F0A2F91049884210D1D5
:1047400004F5077000F09BF90D49884209D104F582
:10475000087000F094F9A06104F5097000F08FF979
:104760006061084927700888401C0880E080204666
:10477000FEF7FEFBEBE60000BC2600205252614132
:10478000727241618400002073B505680446019887
:1047900001E0401C019001782F29FAD05C29F8D063
:1047A0000021A16001980078202806D2802084F89A
:1047B0002F002046FEF7B8FF7CBD01A92046FEF77A
:1047C0009BFC0028F8D12046FEF7D0FD94F82F106E
:1047D00028B10428F0D14907EED405207CBD490753
:1047E000FCD4A079C006F8D5A9896069B0FBF1F2C4
:1047F00001FB120041192846383100F02DF9A06064
:10480000DBE7000013B5044801224FF6FF73694649
:10481000FDF7CCFB00981CBD8C2500207CB51C4608
:1048200016460B22054600F093FB052C11D91E4AB3
:104830000CE00021B61C23460446400863F35F04E5
:10484000E30300D55440491C1029F4D330880028D4
:10485000EFD107214FEA0D0304F00F003030392863
:1048600000D9C01D58542409A1F10101F4D17E20C2
:1048700000224C1E585406E081387D2802D8A242FE
:1048800006D0521C521C8A4202D2A85C2028F3D1C6
:10489000082902D2585C491C00E02020A854521C70
:1048A000082AF5D37CBD0000211001002DE9F0415C
:1048B000046802290D460BD3E069A84208D9207884
:1048C0004FF0FF36012807D0022835D003284AD000
:1048D00001263046BDE8F081A08905EB5507A16AA5
:1048E000B7FBF0F00144204600F043FB0028F0D174
:1048F000A08907F10108B7FBF0F100FB1171B8FBCB
:10490000F0F0214491F83870A16A0144204600F08B
:1049100030FB0028DDD1A089E907B8FBF0F200FBED
:104920001280204490F8381047EA012001D006098F
:10493000CFE7C0F30B06CCE7A189A06A4908B5FB15
:10494000F1F10144204600F014FB0028C1D1A089F8
:104950006900B1FBF0F200FB12102044383000F087
:1049600099F80646B5E7A189A06A8908B5FBF1F177
:104970000144204600F0FDFA0028AAD1A089A90030
:10498000B1FBF0F200FB12102044383000F077F851
:1049900020F070469DE70020704710B5026804467D
:1049A0004FF0FF30002A13D0114600E0491C0B786D
:1049B000202B0ED33A2BF9D112F8013B303B0A2BB6
:1049C00006D28A4204D1032B02D2491C1846216028
:1049D00010BD002010BD0000F0B51E4A034605685A
:1049E0005FF0000002EB00142668AE4207D1666853
:1049F0009F68BE4203D1A4685E69B44202D0401CE5
:104A00000228EFD3022814D1002002E0401C022823
:104A100004D202EB00142468002CF7D102280ED037
:104A200002EB0014002625609D6865605B69A36049
:104A3000A681002902EB0011898902D019B100205A
:104A4000F0BD491C01E04FF4807102EB0012401CE4
:104A50009181F0BDC826002070B50D46064601F1D3
:104A60001A0000F017F804463078032805D105F144
:104A7000140000F00FF844EA0044204670BD83782B
:104A800042780178C07843EA002042EA002041EAF7
:104A9000002070470178407841EA0020704700000C
:104AA00008B5FCF7FBF8BFF34F8FBFF36F8F804A59
:104AB00000207E4910600A6842F400320A60BFF3A9
:104AC0004F8FBFF36F8F794A70321060BFF34F8FF3
:104AD000101F774D43F6FF7410350068C0F34E3257
:104AE000C0F3C90304EA4216184600BF46EA8077BD
:104AF0002F60401EFAD2521EF4D2BFF34F8F0868C7
:104B000040F480300860BFF34F8FBFF36F8FFDF725
:104B1000A7FDFDF7D5FAFDF7A7FAFDF79FFBFDF717
:104B200039FBFDF771FBFDF7BDFA0020FBF7F8FB41
:104B30000220FBF7F5FB0120FBF7F2FB5DA0FEF77F
:104B4000ADF86948012267A1FFF75AF9674C0D28B3
:104B50004FF480650146207008D000292FD064A052
:104B6000FEF79CF86CA0FEF799F8FEE774A0FEF73C
:104B700095F87E4B0022072100955AA0FEF776FE9D
:104B8000207060B10020FBF7D9FB0120FBF7C8FBC8
:104B90000220FBF7C5FB76A0FEF780F8FEE77AA0BF
:104BA000FEF77CF8012200204EA1FFF729F92070C2
:104BB00001224D484BA1FFF723F9207002E07AA0B3
:104BC000FEF76CF882A0FEF769F894480A228BA1E0
:104BD000FFF742F9924E002820702CD00020FBF7FE
:104BE000ADFB0120FBF79CFB0220FBF799FB8DA09E
:104BF000FEF754F892A0FEF751F8884801227FA1F1
:104C0000FFF72AF9002820704FF000002ED0FBF7A4
:104C100095FB0120FBF784FB0220FBF781FB92A0B0
:104C2000FEF73CF87D48FEF70DFE012200202DA185
:104C3000FFF7E6F8FEE79248FEF730F8784B44229B
:104C40007648191DFFF71BFB011E217006D08DA0B1
:104C5000FEF724F87148FEF7F5FDCBE731688FA029
:104C6000FEF71CF86E4996A0091DF1E7FBF758FB0B
:104C70000120FBF763FB0220FBF752FB98A0FEF735
:104C80000DF8674B2A4639496448FFF7F7F9011ECA
:104C9000217004D097A000BFFEF700F8C2E731688A
:104CA0009AA0FDF7FBFF3149A1A0F5E714ED00E064
:104CB00050EF00E02A2A2A2A2A2A20D5E2CAC7D29F
:104CC000BBB8F653504920464C41534820CEC4BC93
:104CD000FECFB5CDB3CAB5D1E9202A2A2A2A2A2A7D
:104CE0000D0A0000303A00008C0400206C00002007
:104CF000A3A1A3A1CDE2B2BF466C617368B9D2D4BF
:104D0000D8CEC4BCFECFB5CDB3CAA7B0DCA1A32812
:104D10002564290D0A000000A3A1A3A1BFC9C4DC1A
:104D2000D4ADD2F2A3BA53504920466C617368B334
:104D3000F5CABCBBAFB2BBB3C9B9A6A1A30D0A00EB
:104D4000A1B7464C415348BBB9C3BBD3D0CEC4BCBA
:104D5000FECFB5CDB3A3ACBCB4BDABBDF8D0D0B81D
:104D6000F1CABDBBAF2E2E2E0D0A00008C00002014
:104D7000A1B6A1B6B8F1CABDBBAFCAA7B0DCA1A3AA
:104D8000A1B7A1B70D0A0000A1B7464C415348D2C4
:104D9000D1B3C9B9A6B8F1CABDBBAFCEC4BCFECFB2
:104DA000B5CDB3A1A30D0A00A1B7CEC4BCFECFB54B
:104DB000CDB3B9D2D4D8B3C9B9A6A3ACBFC9D2D4E4
:104DC000BDF8D0D0B6C1D0B4B2E2CAD40D0A00004A
:104DD0000D0A2A2A2A2A2A2A20BCB4BDABBDF8D043
:104DE000D0CEC4BCFED0B4C8EBB2E2CAD42E2E2EB4
:104DF000202A2A2A2A2A2A0D0A000000303A46616F
:104E000074555345524661744653B6C1D0B4B2E2AC
:104E1000CAD4CEC4BCFE2E7478740000C414002022
:104E200000000020A3A1A3A1B4F2BFAA2FB4B4BD77
:104E3000A8CEC4BCFECAA7B0DCA1A30D0A00000026
:104E40002A2A2A2A2A2A20BCB4BDABBDF8D0D0CE4B
:104E5000C4BCFEB6C1C8A1B2E2CAD42E2E2E202AEE
:104E60002A2A2A2A2A0D0A00A3A1A3A1B4F2BFAAC2
:104E7000CEC4BCFECAA7B0DCA1A30D0A000000008E
:104E8000B0FE0208A3A1A3A1CEC4BCFED0B4C8EB5F
:104E9000CAA7B0DCA3BA282564290A00A1B7CEC4EA
:104EA000BCFED0B4C8EBB3C9B9A6A3ACD0B4C8EBB0
:104EB000D7D6BDDACAFDBEDDA3BA25640A0000005C
:104EC000A1B7CFF2CEC4BCFED0B4C8EBB5C4CAFD06
:104ED000BEDDCEAAA3BA0D0A25730D0A000000009C
:104EE000A1B7B4F2BFAACEC4BCFEB3C9B9A6A1A3F0
:104EF0000D0A0000A3A1A3A1CEC4BCFEB6C1C8A1E7
:104F0000CAA7B0DCA3BA282564290A00A1B7CEC479
:104F1000BCFEB6C1C8A1B3C9B9A62CB6C1B5BDD730
:104F2000D6BDDACAFDBEDDA3BA25640D0A000000B5
:104F3000A1B7B6C1C8A1B5C3B5C4CEC4BCFECAFD35
:104F4000BEDDCEAAA3BA0D0A2573200D0A0000000B
:104F5000002A05D011F8013B521E00F8013BF9D19F
:104F6000704700005FFA81F1521E00F8011BFBD16F
:104F7000704770B50446406B00260D46A8420FD01E
:104F8000204600F051F906000AD16078012304F1AF
:104F900038012A46FEF730FC08B1751E012665630C
:104FA000304670BD2DE9F047022917460D460446EC
:104FB0004FF002067ED3E069A8427BD920784FF0FB
:104FC0000109012804D0022843D003287DD157E0ED
:104FD000A18905EB5508A26AB8FBF1F081182046BB
:104FE000FFF7C7FF060070D1A2894046EE07B8FB65
:104FF000F2F308F1010802FB1300204400F138002D
:1050000004D00178FAB262F31F1100E03946017052
:1050100084F80390A189A26AB8FBF1F081182046B8
:10502000FFF7A7FF060050D1A189EB07B8FBF1F20B
:1050300001FB1280204400F1380002D0C7F30711B1
:1050400005E00178C7F3032201F0F001114301707C
:1050500039E0A189A06A4908B5FBF1F10144204675
:10506000FFF787FF060030D1A0896900B1FBF0F29D
:1050700000FB1210B9B22044383000F07FF822E073
:10508000A189A06A8908B5FBF1F101442046FFF728
:1050900070FF060019D1A089AD00B5FBF0F100FB4F
:1050A000115020443830FFF7EAFC67F31B0001463B
:1050B000A08900E009E0B5FBF0F200FB12502044AB
:1050C000383000F053F884F803903046BDE8F0879C
:1050D0002DE9F0410568022913460E4607462DD3F7
:1050E000E869B0422AD93BB14FF0FF321946284651
:1050F000FFF758FF00281FD131463846FFF7D6FB8F
:10510000040018D0012C19D0601C19D0002231469F
:105110002846FFF747FF00280ED1D5E90610821E6A
:10512000914205D22A79491CA96142F001022A71F3
:105130002646B042E0D80020BDE8F0810220FBE71F
:105140000120F9E770B50C46154691B2064604F108
:105150001A0000F013F83078032806D1290C04F166
:105160001400BDE8704000F009B870BD0A0A017073
:105170004270110A81700A0AC27070470A0A0170EF
:1051800042707047014600200B2210B5440811F808
:10519000013B04EBC0101844521EC0B2F6D110BD42
:1051A00070B5044600F040F8050036D12078032899
:1051B0002CD12079012829D104F13800A2890021BD
:1051C0000646FFF7CFFE04F236204AF65521FFF7D8
:1051D000D5FF13493046FFF7C9FF124904F50770A0
:1051E000FFF7C4FFA16904F50870FFF7BFFF61690D
:1051F00004F50970FFF7BAFF626A01233146521CB9
:1052000062636078FEF710FB002020710022607856
:105210001146FEF7E5FA00B10125284670BD0000F1
:1052200052526141727241612DE9F0410446C078E9
:105230000027F8B1656B04F13801607801232A4634
:105240008846FEF7F1FA08B1012713E0A26A0020B0
:10525000216AAA1AE0708A420CD2A67808E0206A75
:1052600001234146054460782A46FEF7DDFA761EA2
:10527000022EF4D23846BDE8F08170B504000D4628
:105280000CD0206850B1017841B1C188A288914208
:1052900004D14078FEF7BEFAC00702D000210920F1
:1052A00001E021680020296070BD000400080010A2
:1052B0000006101600061016000000000000000096
:1052C00001020304060708090000000001020304AC
:1052D000A400E8A1A700ECA1A800A7A1B000E3A149
:1052E000B100C0A1B700A4A1D700C1A1E000A4A84B
:1052F000E100A2A8E800A8A8E900A6A8EA00BAA8C8
:10530000EC00ACA8ED00AAA8F200B0A8F300AEA88B
:10531000F700C2A1F900B4A8FA00B2A8FC00B9A82D
:105320000101A1A81301A5A81B01A7A82B01A9A8E9
:105330004401BDA84801BEA84D01ADA86B01B1A8AC
:10534000CE01A3A8D001ABA8D201AFA8D401B3A8C5
:10535000D601B5A8D801B6A8DA01B7A8DC01B8A86B
:105360005102BBA86102C0A8C702A6A1C902A5A19B
:10537000CA0240A8CB0241A8D90242A89103A1A623
:105380009203A2A69303A3A69403A4A69503A5A69D
:105390009603A6A69703A7A69803A8A69903A9A66D
:1053A0009A03AAA69B03ABA69C03ACA69D03ADA63D
:1053B0009E03AEA69F03AFA6A003B0A6A103B1A60D
:1053C000A303B2A6A403B3A6A503B4A6A603B5A6D9
:1053D000A703B6A6A803B7A6A903B8A6B103C1A69A
:1053E000B203C2A6B303C3A6B403C4A6B503C5A63D
:1053F000B603C6A6B703C7A6B803C8A6B903C9A60D
:10540000BA03CAA6BB03CBA6BC03CCA6BD03CDA6DC
:10541000BE03CEA6BF03CFA6C003D0A6C103D1A6AC
:10542000C303D2A6C403D3A6C503D4A6C603D5A678
:10543000C703D6A6C803D7A6C903D8A60104A7A741
:105440001004A1A71104A2A71204A3A71304A4A7E0
:105450001404A5A71504A6A71604A8A71704A9A7AE
:105460001804AAA71904ABA71A04ACA71B04ADA77C
:105470001C04AEA71D04AFA71E04B0A71F04B1A74C
:105480002004B2A72104B3A72204B4A72304B5A71C
:105490002404B6A72504B7A72604B8A72704B9A7EC
:1054A0002804BAA72904BBA72A04BCA72B04BDA7BC
:1054B0002C04BEA72D04BFA72E04C0A72F04C1A78C
:1054C0003004D1A73104D2A73204D3A73304D4A720
:1054D0003404D5A73504D6A73604D8A73704D9A7EE
:1054E0003804DAA73904DBA73A04DCA73B04DDA7BC
:1054F0003C04DEA73D04DFA73E04E0A73F04E1A78C
:105500004004E2A74104E3A74204E4A74304E5A75B
:105510004404E6A74504E7A74604E8A74704E9A72B
:105520004804EAA74904EBA74A04ECA74B04EDA7FB
:105530004C04EEA74D04EFA74E04F0A74F04F1A7CB
:105540005104D7A710205CA9132043A81420AAA1B6
:10555000152044A81620ACA11820AEA11920AFA197
:105560001C20B0A11D20B1A1252045A82620ADA159
:105570003020EBA13220E4A13320E5A1352046A85C
:105580003B20F9A1AC2080000321E6A1052147A81A
:10559000092148A81621EDA1212159A96021F1A2D4
:1055A0006121F2A26221F3A26321F4A26421F5A297
:1055B0006521F6A26621F7A26721F8A26821F9A267
:1055C0006921FAA26A21FBA26B21FCA27021A1A28F
:1055D0007121A2A27221A3A27321A4A27421A5A267
:1055E0007521A6A27621A7A27721A8A27821A9A237
:1055F0007921AAA29021FBA19121FCA19221FAA1DB
:105600009321FDA1962149A897214AA898214BA84A
:1056100099214CA80822CAA10F22C7A11122C6A114
:1056200015224DA81A22CCA11D22D8A11E22DEA12E
:105630001F224EA82022CFA123224FA82522CEA18F
:105640002722C4A12822C5A12922C9A12A22C8A192
:105650002B22D2A12E22D3A13422E0A13522DFA118
:105660003622C3A13722CBA13D22D7A14822D6A101
:105670004C22D5A1522250A86022D9A16122D4A1E6
:105680006422DCA16522DDA1662251A8672252A80E
:105690006E22DAA16F22DBA1952292A89922D1A1D4
:1056A000A522CDA1BF2253A81223D0A16024D9A244
:1056B0006124DAA26224DBA26324DCA26424DDA2DA
:1056C0006524DEA26624DFA26724E0A26824E1A2AA
:1056D0006924E2A27424C5A27524C6A27624C7A2B6
:1056E0007724C8A27824C9A27924CAA27A24CBA29A
:1056F0007B24CCA27C24CDA27D24CEA27E24CFA26A
:105700007F24D0A28024D1A28124D2A28224D3A239
:105710008324D4A28424D5A28524D6A28624D7A209
:105720008724D8A28824B1A28924B2A28A24B3A251
:105730008B24B4A28C24B5A28D24B6A28E24B7A249
:105740008F24B8A29024B9A29124BAA29224BBA219
:105750009324BCA29424BDA29524BEA29624BFA2E9
:105760009724C0A29824C1A29924C2A29A24C3A2B9
:105770009B24C4A20025A4A90125A5A90225A6A9A8
:105780000325A7A90425A8A90525A9A90625AAA92D
:105790000725ABA90825ACA90925ADA90A25AEA9FD
:1057A0000B25AFA90C25B0A90D25B1A90E25B2A9CD
:1057B0000F25B3A91025B4A91125B5A91225B6A99D
:1057C0001325B7A91425B8A91525B9A91625BAA96D
:1057D0001725BBA91825BCA91925BDA91A25BEA93D
:1057E0001B25BFA91C25C0A91D25C1A91E25C2A90D
:1057F0001F25C3A92025C4A92125C5A92225C6A9DD
:105800002325C7A92425C8A92525C9A92625CAA9AC
:105810002725CBA92825CCA92925CDA92A25CEA97C
:105820002B25CFA92C25D0A92D25D1A92E25D2A94C
:105830002F25D3A93025D4A93125D5A93225D6A91C
:105840003325D7A93425D8A93525D9A93625DAA9EC
:105850003725DBA93825DCA93925DDA93A25DEA9BC
:105860003B25DFA93C25E0A93D25E1A93E25E2A98C
:105870003F25E3A94025E4A94125E5A94225E6A95C
:105880004325E7A94425E8A94525E9A94625EAA92C
:105890004725EBA94825ECA94925EDA94A25EEA9FC
:1058A0004B25EFA9502554A8512555A8522556A897
:1058B000532557A8542558A8552559A856255AA800
:1058C00057255BA858255CA859255DA85A255EA8D0
:1058D0005B255FA85C2560A85D2561A85E2562A8A0
:1058E0005F2563A8602564A8612565A8622566A870
:1058F000632567A8642568A8652569A866256AA840
:1059000067256BA868256CA869256DA86A256EA80F
:105910006B256FA86C2570A86D2571A86E2572A8DF
:105920006F2573A8702574A8712575A8722576A8AF
:10593000732577A8812578A8822579A883257AA858
:1059400084257BA885257CA886257DA887257EA81B
:10595000882580A8892581A88A2582A88B2583A8E7
:105960008C2584A88D2585A88E2586A88F2587A8B7
:10597000932588A8942589A895258AA8A025F6A10D
:10598000A125F5A1B225F8A1B325F7A1BC258BA8C7
:10599000BD258CA8C625F4A1C725F3A1CB25F0A170
:1059A000CE25F2A1CF25F1A1E2258DA8E3258EA871
:1059B000E4258FA8E52590A80526EFA10626EEA1EF
:1059C000092691A84026E2A14226E1A10030A1A12A
:1059D0000130A2A10230A3A10330A8A10530A9A1E2
:1059E000063065A9073096A90830B4A10930B5A1E1
:1059F0000A30B6A10B30B7A10C30B8A10D30B9A157
:105A00000E30BAA10F30BBA11030BEA11130BFA122
:105A1000123093A81330FEA11430B2A11530B3A1F7
:105A20001630BCA11730BDA11D3094A81E3095A81A
:105A3000213040A9223041A9233042A9243043A972
:105A4000253044A9263045A9273046A9283047A942
:105A5000293048A94130A1A44230A2A44330A3A4D4
:105A60004430A4A44530A5A44630A6A44730A7A43A
:105A70004830A8A44930A9A44A30AAA44B30ABA40A
:105A80004C30ACA44D30ADA44E30AEA44F30AFA4DA
:105A90005030B0A45130B1A45230B2A45330B3A4AA
:105AA0005430B4A45530B5A45630B6A45730B7A47A
:105AB0005830B8A45930B9A45A30BAA45B30BBA44A
:105AC0005C30BCA45D30BDA45E30BEA45F30BFA41A
:105AD0006030C0A46130C1A46230C2A46330C3A4EA
