:020000040800F2
:10000000E81300200D020008A7380008F7220008B6
:10001000A538000869030008BD3D00080000000085
:10002000000000000000000000000000CD380008C3
:10003000A104000800000000CB380008CF380008F9
:1000400027020008270200082702000827020008EC
:1000500027020008270200085505000827020008AB
:1000600027020008270200082702000827020008CC
:1000700027020008270200082702000827020008BC
:1000800027020008270200082702000827020008AC
:10009000270200082702000827020008270200089C
:1000A000270200082702000827020008270200088C
:1000B000270200082702000827020008270200087C
:1000C000270200082702000827020008270200086C
:1000D000270200082702000827020008270200085C
:1000E000270200082702000827020008270200084C
:1000F000270200082702000827020008270200083C
:10010000270200082702000827020008270200082B
:10011000270200082702000827020008270200081B
:1001200027020008270200080D0400082702000823
:1001300027020008270200082702000827020008FB
:1001400027020008270200082702000827020008EB
:1001500027020008270200081904000827020008E7
:1001600027020008270200082702000827020008CB
:1001700027020008270200082702000800000000EC
:1001800027020008270200082702000827020008AB
:10019000270200082702000827020008270200089B
:1001A00055330008270200086D03000827020008E5
:1001B000270200082702000827020008270200087B
:1001C000270200082702000800000000270200089C
:1001D000270200082702000827020008270200085B
:1001E000270200082702000827020008270200084B
:1001F0002702000827020008DFF80CD000F07AF888
:10020000004800470D410008E813002006488047D9
:1002100006480047FEE7FEE7FEE7FEE7FEE7FEE7EB
:10022000FEE7FEE7FEE7FEE7A5390008F901000852
:100230002DE9F05F0546002092469B46884606461B
:10024000814640241BE0284641464746224600F0AE
:1002500041F853465A46C01A914110D311461846E8
:10026000224600F028F82D1A67EB01084F46224677
:100270000120002100F01FF817EB00094E41201E5D
:10028000A4F10104DFDC484631462A464346BDE876
:10029000F09F40EA01039B0703D009E008C9121F41
:1002A00008C0042AFAD203E011F8013B00F8013B30
:1002B000521EF9D27047202A04DB203A00FA02F1DC
:1002C000002070479140C2F1200320FA03F3194344
:1002D00090407047202A04DB203A21FA02F00021E6
:1002E000704721FA02F3D040C2F120029140084346
:1002F00019467047064C074D06E0E06840F00103E0
:1003000094E8070098471034AC42F6D3FFF778FF23
:100310008C5E0008AC5E00080449054A31F81010F4
:1003200052F82000012200F043BE0000AC43000858
:10033000000000200449054A31F8101052F820004E
:10034000002200F035BE0000AC4300080000002091
:100350000349044A31F8101052F8200000F024BE7E
:10036000AC43000800000020FEE70000014800F058
:10037000E3B9000074000020F0B5059C44EA034591
:1003800003685C6C04F040442C435C640368DA63EB
:100390004268B2F5403F02D00068C160F0BD01F490
:1003A0007F42856801F47F04224301F07F4301F41A
:1003B0007F0701F47F46CCB2BDB1012D16D001F408
:1003C0007F02C1F3C401D20C022D11D0032D14D031
:1003D000320B390D15011A0F45EA0123210943EAB1
:1003E00002320A4300688263F0BD1A432243F9E7F0
:1003F000B30A5B0143EAC222F3E7F40ADB0F6401AC
:1004000044EA822242EAC332EBE70000014800F0EE
:100410001DBB000018020020014800F017BB0000BF
:100420007802002001681823CAB2103AB2FBF3F236
:10043000054B6FF30901032A9B5CC36500D9091DB5
:100440008165084670470000B243000810B5836913
:100450004FF0C074826A0146002053B1B3F5005FCB
:1004600015D072B1012A0CD0022A0AD0032A09D170
:1004700004E01AB1012A06D0022A03D1C96AC901CF
:1004800000D5012010BDC96AA142FAD010BD002AD2
:10049000F7D0012AF2D0022AF3D0032AF3D010BDFC
:1004A000704700002DE9F74F29480026DFF89CA08F
:1004B000406800EB40000AEB800080688588C788B0
:1004C000E81D834620F00700401B00F0FF0939E0DB
:1004D0004FEADB010298012901FB060009D002293D
:1004E00009D0017842788378080440EA0220184352
:1004F00003E0007801E0008840BA002480461AE05A
:100500002A1B02EB09010120491E884010EA080F4E
:10051000009800EB04020E48416890B201EB4102E2
:1005200002D05AF8222002E00AEB82014A680199BF
:1005300002F032FA641CAC42E2D30198401C80B253
:100540000190761CBE42C3D3BDE8FE8F6803002035
:100550002C000020012000F02FBCF0B5D1E90125CE
:10056000D1E90343D1E905762A43D1F800C044EA32
:100570000304D1E9073542EA0402496A42EA070264
:10058000BCF1010F42EA060208D004681A432A436C
:100590000A43E30BDB031A4302600BE0066844687E
:1005A0002B4326F4F84529430B4303606FF30E04F5
:1005B000224342600020F0BD426942EA41014161AC
:1005C0000020704738B591E81C00C9686FF01F051E
:1005D0001A4305EB441444EA41210A4300920261A4
:1005E000002038BD2DE9F043914691E81C006FF0E2
:1005F0000F05521E2E0105EB03131A430B7E06EB6B
:1006000004268C8A2F034FEA054C0D8A32434FF0A3
:100610007F4808EB0366CB68B9F1010F07EB05458E
:100620000CEB04540CD081683F1107EB03331A43E1
:100630002A432243324301F070410A43826011E0B1
:100640008168DFF828C0C7681B03A3F580532343E4
:100650002A4301EA0C0132430B43836007F07044E4
:100660002243C2600020BDE8F0830000FF0F0FFFAF
:1006700050F8212022F4007240F821200020704719
:1006800070470000F0B501EB410290F8503000EBEC
:10069000C2022032012B27D0264C012580F8505071
:1006A000022380F8513016895368178AB2F814C0B3
:1006B00043EA06460A2B46EA075646EA4C5615D048
:1006C000092B13D0137B46EA0363066899B1F169DD
:1006D000A1431943F161016813680B6151680A294C
:1006E0001BD0092919D01DE00220F0BDD36803F00A
:1006F0007F433343E9E7716AA1431943716201689B
:1007000013688B6151680A2901D009290AD1D1687F
:10071000026821F07F41916204E0D168026821F013
:100720007F411162002180F8515080F85010084636
:10073000F0BD00000F0033FF2DE9F04704460068CC
:1007400000274FF004084FF0010946680568F107DB
:1007500014D0E90512D5036823F480730360606D3B
:1007600040F0010060652068C0F8089084F851806E
:1007700084F85070E16909B120468847B00615D564
:10078000A80413D520682022036823F400530360D3
:1007900020688260606D40F00200606584F85180DE
:1007A00084F85070E16909B120468847300715D5B3
:1007B000280513D520680822036823F4006303602A
:1007C00020688260606D40F00400606584F85180AC
:1007D00084F85070E16909B12046884770070CD54C
:1007E00068050AD52068026822F4806202602068E9
:1007F000C0F80880204600F06AF8B00713D5A805B5
:1008000011D520680222036823F400730360206876
:100810008260606D606584F8519084F85070A169C1
:1008200009B120468847F00612D5E80410D52068A3
:10083000016821F480510160226810219160616D8E
:10084000616584F85190204684F85070FFF718FFD6
:10085000BDE8F08770B5040004D094F8510000257D
:1008600010B106E0012070BD204684F8505000F021
:100870002FF8022084F85100D4E900030121026816
:1008800022F440321A4302602068A368426B22F0CF
:1008900007021A4342632068E368026C6FF30D029B
:1008A0001A4302642068228A436B23F4801343EACC
:1008B000025242632068A28A436B23F4001343EA86
:1008C00042524263656584F85110002070BD704744
:1008D00008B500680B49884212D10B48016841F401
:1008E0000001016000680022114600F40000009041
:1008F0005A2000F0EFFDBDE808405A2000F0DEBDB0
:1009000008BD000000B00240303802402DE9F84335
:100910000026044604270D4600964FF003080068A1
:100920000068C00727D000F049FB81461FE04068FF
:10093000009010F0210F11D00098800603D5606D53
:1009400040F0020060650098C00703D0606D40F081
:100950000100606520682121816034E0681C06D0B8
:10096000C5B300F02BFBA0EB0900A8423CD82068DF
:1009700041688907DBD52068C169890602D4406ACD
:1009800080063FD500F01AFB814637E040680090B2
:1009900010F0290F1FD00098000703D5606D40F0BC
:1009A000040060650098800603D5606D40F0020089
:1009B00060650098C00703D0606D40F0010060657D
:1009C00021682920886084F85170012084F85060E3
:1009D000BDE8F88308E0681C10D02DB100F0EEFAF5
:1009E000A0EB0900A84209D9616D84F8506041F07C
:1009F0002001616584F851800320E9E7206841689F
:100A0000C906C3D5226812210120916084F85100E3
:100A1000002084F85060DBE7F8B50446069894F8A7
:100A20005050012D10D0012684F85060022584F822
:100A3000515000902046FFF79FFC2068016841F06C
:100A4000010101600020F8BD0220F8BD2DE9F84346
:100A500004464FF00009644B0820CDF800904FF495
:100A60001652A56D94F85C101B682E68B3FBF2F764
:100A700000FA01F131420FD021680A6852070BD504
:100A80000A6822F004020A6094F85C108840A860AA
:100A9000606D40F00100606594F85C104FF0010853
:100AA00008FA01F0304208D021684969090604D5E6
:100AB000A860606D40F00200606594F85C1004204E
:100AC0008840304208D021680968890704D5A860A9
:100AD000606D40F00400606594F85C101020884060
:100AE000304218D021680968090714D5A860206829
:100AF0000168490304D50068000308D5A16C07E02C
:100B00000168C90503D4016821F008010160216C66
:100B100009B12046884794F85C1020208840304274
:100B200031D021680968C9062DD5A86094F8350030
:100B300005282068016806D0490347D500680003EE
:100B40001DD4616C1CE021F0160101602068416930
:100B500021F080014161206C08B9A06C20B12068AF
:100B6000016821F00801016094F85C303F229A404E
:100B7000AA6084F8349084F83580216D1FE0E16B21
:100B800009B120468847606D00282BD0606DC007F2
:100B900014D0052084F835002068016821F0010197
:100BA00001600098401C0090B84203D8206800689B
:100BB000C007F6D184F8349084F83580E16C0029C0
:100BC00010D001B02046BDE8F04308470168C905D0
:100BD000D5D4036823F01003036084F8349084F8BC
:100BE0003580CCE7BDE8F883280000202DE9F047E8
:100BF000044600F0E3F9054664B14FF0000984F8BB
:100C00003490022184F835102068016821F0010138
:100C100001600EE00120BDE8F08700BF00F0CEF9D2
:100C2000401B052805D920216165032084F8350083
:100C3000F1E720680068C007F0D1D4E90020D4E9CA
:100C40000251D4E9043C284304F118051943084330
:100C5000116895E8E00140EA0C001C4B284319405C
:100C600040EA060040EA0700B8F1040F40EA01003C
:100C700003D1D4E90B1319430843106020680126FF
:100C8000656A4069042D20F0070045EA00050CD193
:100C9000D4E90A01054341B12046FFF7D7FB20B153
:100CA0004020606584F83560B4E7206845612046DF
:100CB000FFF7B8FB94F85C303F229A408260C4F89A
:100CC000549084F835600020A5E700003F8010E0D4
:100CD00070B5044600F072F90546601C02D0044865
:100CE0000078044400F06AF9401BA042FAD370BDBA
:100CF0001C00002025482DE9F041016886B000293C
:100D000040D14FF00108C0F800802148016841F04F
:100D100001010160006802240025694600F001001D
:100D2000059003264FF63F000C278DE8F100194887
:100D300000F04EF801AACDF800801748694682E815
:100D4000F00000F045F848F2331069468DE8F100F4
:100D5000124800F03DF84FF6837069468DE8F100C7
:100D60000F4800F035F8C02069468DE8F1000D48C5
:100D700000F02EF84CF2037069468DE8F1000A4845
:100D800000F026F806B0BDE8F08100000C0000205D
:100D900038380240001402400008024000180240A7
:100DA00000100240001C0240000C0240012802D149
:100DB0000220FFF7CDBA7047044910B50A68024215
:100DC00002D00860FFF7F2FF10BD0000143C0140A4
:100DD0002DE9F84FDFF89CE100224FF001084FF0B9
:100DE000030B4FF00F0A00BF0B6808FA02F4234010
:100DF000A34271D14D68022D01D0122D0FD1D5081B
:100E00000E69570700EB8505A9462D6AFF0E0AFA01
:100E100007FCBE4025EA0C052E43C9F820600F7977
:100E2000550006680BFA05FC07F0030726EA0C06D6
:100E3000AF40374307604E68012E05D0022E03D025
:100E4000112E01D0122E0ED18668CF6826EA0C062C
:100E5000AF403743876046680F79A643C7F3001752
:100E6000974037434760C4688E6824EA0C04AE405C
:100E70002643C6604C68E40075D53F4C256845F4B0
:100E800080452560246822F00306950704F4804419
:100E900000943A4C2D0F2644D6F80848DFF8E0C0FD
:100EA0000AFA05F7604524EA070401D100272EE07D
:100EB000344FB84201D1012729E0334FB84201D164
:100EC000022724E0314FB84201D103271FE0304F01
:100ED000B84202D104271AE045E02E4FB84201D1B2
:100EE000052714E02C4FB84201D106270FE02B4F05
:100EF000B84201D107270AE0294FB84201D108279B
:100F000005E0284FB84201D1092700E00A27AF4089
:100F100027437546C6F808784E68DEF80040F603A9
:100F200024EA030400D51C43124E2C60361D4D6884
:100F30003468AD0324EA030400D51C430D4F34602C
:100F400008374D683C68ED0224EA030400D51C43D1
:100F5000084D3C600C354E682C68B60224EA030448
:100F600000D51C432C60521C102AFFF43DAFBDE895
:100F7000F88F0000003C014044380240003001403E
:100F8000000002400004024000080240000C024041
:100F9000001002400014024000180240001C0240F1
:100FA000002002400024024042694A4042617047EA
:100FB0000AB1816170470904FBE7000001488068BD
:100FC000704700001C00002002488168027811442C
:100FD000816070471C000020032010B500F09AFAD1
:100FE000002000F005F800F027FA002010BD0000F6
:100FF00070B50D4D04464FF47A700C4A297812688A
:10100000B0FBF1F0B2FBF0F001F065F848B9102C3C
:1010100007D200222146501E00F05CFA00206C60CE
:1010200070BD012070BD00001C00002028000020C1
:101030002DE9F041044690F8A00016460F4601281D
:101040001DD0012584F8A050022084F8A10006EBF1
:10105000860000EBC600342204EB80003830FFF736
:1010600018F932463946204602F07AF92168002004
:101070004D6284F8A15084F8A000BDE8F081022000
:10108000FBE7704770B50446006804260025816BB5
:10109000490715D5816B490712D5416B21F0040131
:1010A00041632068C663D4F8A40040F00100C4F88E
:1010B000A40084F8A160204684F8A050FFF7E1FF67
:1010C0002068816B890716D5816B890713D5426B20
:1010D000022122F0020242632068C163D4F8A40016
:1010E00040F00200C4F8A40084F8A160204684F80F
:1010F000A050FFF7C6FF20680126816BC9070FD0FB
:10110000816BC9070CD0416B21F00101416320685C
:10111000C66384F8A160204684F8A05000F096F8D9
:101120002068816B090710D5816B09070DD5426BCB
:10113000082122F0080242632068C16384F8A1609C
:10114000204684F8A05000F053F970BD2DE9F0411D
:10115000040004D094F8A100002518B107E0012094
:10116000BDE8F081204684F8A05000F071F83648C0
:10117000022184F8A110012202CC8B6923F0704374
:101180008B6194E84A001943E3681E4354F8043D18
:1011900031439E693143996121688B6803408B60BC
:1011A0002168A68AA7698B683B4343EA06438B60A4
:1011B0002168CB680340CB602168A38B276ACE6887
:1011C0003E4346EA0346CE6021680B6903400B614B
:1011D0002168A68CA76A0B693B4343EA06430B616F
:1011E00021684B6903404B612168A38D266B4869D8
:1011F000304340EA03404861236894F8351094F87E
:101200003600DE6A000406F07F46DE62236840EAAC
:10121000012094F83460D96A31430143D9622068CF
:10122000416B41F0040141632068416B41F00201D0
:1012300041632068816941F001018161C4F8A450D3
:1012400084F8A12000208BE700F800F07047000030
:101250002DE9F04F006887B05B4988427ED15B483A
:10126000016841F080610160006800240E26694633
:1012700000F0806005907020009002255448CDE970
:101280000154CDE90346FFF7A3FD0327DFF844919E
:1012900040F215206946CDE90005CDE902474846F0
:1012A0000496FFF795FD4FF48068CDF80080CDE9F6
:1012B0000154CDE9034669464846FFF789FDCDF85C
:1012C00000806946CDE901544348CDE90376FFF734
:1012D0007FFD04200090DFF804916946CDE90154B8
:1012E000CDE903464846FFF773FD4AF20810694608
:1012F000CDE90005CDE9024748460496FFF768FDB1
:1013000041F608006946CDE900053548CDE90247B8
:101310000496FFF75DFD02AA4FF00909CDE90075BB
:101320003048694682E89002FFF752FDDFF8B8B016
:101330004FF40C60CDE90005CDE9024769465846F7
:101340000496FFF745FDDFF8A4A08020CDE9000555
:10135000CDE9024769465046049600E030E0FFF7C9
:1013600037FD28020090CDE90154CDE903466946D6
:101370005046FFF72DFD02AA6946584682E89002C2
:10138000CDE90085FFF724FDE8020090CDE9015486
:10139000CDE9034669465846FFF71AFD380269460B
:1013A000CDE900050F48CDE902470496FFF710FD8F
:1013B00000225820114600F08DF8582000F07EF8E9
:1013C00007B0BDE8F08F00000068014044380240DB
:1013D000001002400020024000140240001C0240A5
:1013E00000000240000402400018024000080240D1
:1013F000704770B5044690F8A0000B46012818D03D
:1014000002EB820000EBC201012584F8A05002200B
:1014100084F8A10004EB81012046CB64383101F04F
:101420009FFF216800204D6284F8A15084F8A0003D
:1014300070BD022070BD00001F4808B5016841F072
:1014400080510160006800F0805000901A48001D33
:10145000016841F480410160006800F48040009020
:10146000032000F057F800226FF00B00114600F047
:1014700031F800226FF00A00114600F02BF800222C
:101480006FF00900114600F025F80022501F1146A8
:1014900000F020F80022101F114600F01BF8002277
:1014A000901E114600F016F80022BDE80840501EBC
:1014B000114600F00FB8000040380240410900F02A
:1014C0001F028900012001F1E0219040C1F80001D4
:1014D000704700000E4BF0B41B680D46C3F30223A7
:1014E000C3F10706042E00D90426191D072901D2CD
:1014F000002300E0DB1E012404FA06F19C40491E93
:101500002940641E994014402143F0BC02F0CCB93C
:101510000CED00E0064900F0070210B54FF6FF049D
:101520000868044B204040EA02201843086010BDC0
:101530000CED00E00000FA051848F8B5016841F02C
:10154000805101600068164C00F0805000902068C7
:1015500040F480302060FFF731FD4FF47A76054685
:1015600005E000BFFFF72AFD401BB0420FD86068BE
:10157000C003F7D5206840F400302060FFF71EFD5F
:10158000054606E0FFF71AFD401BB04201D90320D3
:10159000F8BD60688003F5D50020F8BD40380240F2
:1015A000007000402DE9F84F04460078DFF82494DD
:1015B0004FF000063746C0070ED0D9F8001021F4CE
:1015C0000001C9F80010D9F80010626B1143C9F886
:1015D0000010606B00B90126FE4D206884350003C1
:1015E0000ED5E16B286820F4401008432860E06BBA
:1015F000B0F5801F01D010B102E0012600E0012704
:1016000020684FF4800BC0020CD5216C286820F4B0
:10161000400008432860206C584501D1012601E0B4
:1016200000B901272068C10100D50126800666D5D2
:10163000E8483830016841F0805101600068DFF807
:1016400098A300F080500090DAF8001041F4807107
:10165000CAF80010FFF7B2FC804605E0FFF7AEFCC9
:10166000A0EB080064287DD8DAF80000C005F5D5A5
:10167000DFF8608308F16808D8F8000010F44070C3
:101680002AD0218E01F44071814225D0D8F8001073
:10169000D8F8002021F4407142F48032C8F80020CC
:1016A000D8F8002022F48032C8F80020C8F80010D2
:1016B000D8F80000C0070FD0FFF780FC824607E093
:1016C000FFF77CFCA0EB0A0141F288308142CAD8C6
:1016D000D8F800008007F3D5206BC0F3012103295F
:1016E0007ED0D9F8001021F4F811C9F80010228E2C
:1016F000D8F80010C2F30B021143C8F8001020788C
:10170000C00607D5286820F0807028602868A16B83
:10171000084328602188AF488830490405D5626EA7
:10172000016821F44031114301602188090405D585
:10173000A26E016821F44021114301602168C903B0
:1017400005D5E26E016821F4401111430160216862
:10175000890305D5226F016821F44001114301601E
:10176000217800E034E1490605D5626C016821F07A
:101770000301114301602178090605D5A26C0168B7
:1017800021F00C01114301602188C90505D5E26CE7
:10179000016821F03001114301602188890505D5D8
:1017A000226D016821F0C0011143016021884905C3
:1017B00005D5626D016821F44071114301602188F3
:1017C000090505D5A26D016821F44061114301604E
:1017D0002188C90407D5E26D016821F4405100E079
:1017E0005FE0114301602188890405D5226E0168FC
:1017F00021F44041114301602168490205D5A26FDF
:10180000016821F080611143016021684FF0006A96
:10181000890209D5E26F016821F00061114301607E
:10182000E16F514500D1012721680A0700D5012742
:10183000490305D5626F016821F0407111430160D1
:101840002168090206D5D4F88020016821F0805172
:10185000114301602168490106D5D4F8842001684C
:1018600021F00051114301602068000106D5D4F831
:101870008810286820F00070084328602068C000A5
:1018800006D5D4F88C10286820F0806008432860C2
:10189000DFF84891012E0ED02068B0F1007F0AD009
:1018A0008FE04F4AD9F80030104023F4F812024379
:1018B000C9F800201BE7D9F800004E4620F08060F0
:1018C000C9F80000FFF77AFB804605E0FFF776FBDA
:1018D000A0EB080064287BD830680001F6D421789A
:1018E0003C487C30C90712D0616B81B9237A6268A9
:1018F0000168D0F800C09201C1F3014142EA0142FF
:10190000CCF3036142EA016141EA0371016021689D
:101910000A0303D5E26BB2F5801F04D0C9021AD5C1
:10192000216C594517D16368016894F80CC00268AE
:101930009B01C1F3014143EA0141C2F3027241EA52
:101940000C6141EA027101602968626A21F01F019D
:10195000521E114329602168C90110D5238A62688B
:101960000168D0F800C09201C1F3036142EA03426A
:1019700042EA0162CCF3027142EA0171016021681E
:1019800089010CD56168228A237B94F808C08901FB
:1019900041EA024141EA036141EA0C7101603168A8
:1019A000B04641F080613160FFF708FB064604E075
:1019B000FFF704FB801B64280AD8D8F80000000158
:1019C000F6D5E7B3D9F800004E4620F0805009E084
:1019D0007BE0000008380240007000400038024000
:1019E000FFFCFF0FC9F80000FFF7E8FA074604E024
:1019F000FFF7E4FAC01B642867D83068C043800052
:101A0000F6D5216835480A0301D5E26B1AB1C9023F
:101A10001DD5216CD9B963690168277E02689B01D5
:101A2000C1F3014143EA0143C2F3027143EA076291
:101A300042EA0171016029686FF0FF0300E04BE0AA
:101A4000A26A21F4F85103EB0222114329602168B4
:101A5000890212D5E16F51450FD1238C626901686B
:101A600007689201C1F3036142EA034242EA01625C
:101A7000C7F3027142EA017101602178090716D5A6
:101A800061690268D0F800C08B01277FC2F303624E
:101A9000CCF3014143EA014141EA026141EA0771A5
:101AA00001602868E16A20F440300843286030680B
:101AB00040F080503060FFF781FA044608E000BF34
:101AC000FFF77CFA001B642802D90320BDE8F88FD9
:101AD0003068C0438000F3D40020F7E78838024024
:101AE0002DE9F04705000F4663D0444E306800F002
:101AF0000F00B84209D2306820F00F003843306040
:101B0000306800F00F00B84253D128683C4C810780
:101B100012D5400703D5206840F4E05020602878B3
:101B2000000703D5206840F460402060A968206861
:101B300020F0F000084320602878C0072AD0304900
:101B400068680839012810D00968022810D0890770
:101B500000292EDA216821F0030101432160FFF7FB
:101B60002DFA804641F288390DE009688903EFE7D4
:101B70008901EDE7FFF722FAA0EB0801494502D9F8
:101B80000320BDE8F0876868216801F00C01B1EB23
:101B9000800FEFD1306800F00F00B8420BD93068E9
:101BA00020F00F0038433060306800F00F00B8427A
:101BB00001D00120E5E72878400705D5E9682068CD
:101BC00020F4E050084320602878000706D52869F3
:101BD000216821F4604141EAC000206000F03CF837
:101BE0002168084AC1F30311515CC84006490860E6
:101BF0000020FFF7FDF90020C3E70000003C024091
:101C000008380240BA430008280000200148006854
:101C10007047000028000020044905480968006852
:101C2000044AC1F38221515CC84070470838024021
:101C300028000020CA4300080449054809680068D4
:101C4000044AC1F34231515CC84070470838024031
:101C500028000020CA430008154910B51548096836
:101C600011F00C0213D01449042A0FD0082A0ED107
:101C70000F4C241F2268236802F03F025B0207D545
:101C80002068C0F38810A0FB010106E0084610BDE3
:101C90002168C1F38811A1FB00010023FEF7C8FAF7
:101CA0002168C1F30141491C4900B0FBF1F010BDAE
:101CB000083802400024F40040787D012DE9F84FF7
:101CC00005004FF000076ED02878DFF82093A9F1C7
:101CD000040AC007AAF104044CD0D9F80010484601
:101CE000C1F38101012908D00068C0F381000228F6
:101CF0000AD1DAF80000400206D52068800339D501
:101D000068680028DFD035E06868B0F5803F0BD008
:101D100010B1B0F5A02F11D0206820F480302060E1
:101D2000206820F4802002E0206840F480302060A9
:101D3000686890B1FFF742F906460AE0206840F46F
:101D400080202060F0E700BFFFF738F9801B64288F
:101D500072D820688003F7D50CE0FFF72FF906460C
:101D600005E000BFFFF72AF9801B6428F0D820683F
:101D70008003F7D42878800742D5D9F80010484668
:101D800011F00C0F08D00068C0F3810002280BD1BD
:101D9000DAF80000400207D42068800718D5E86808
:101DA000012800D114E01EE1E8680028206817D05F
:101DB00040F001002060FFF701F9064605E000BF92
:101DC000FFF7FCF8801B0228C2D820688007F7D5EF
:101DD0002869216821F0F80141EAC00020600FE085
:101DE00020F001002060FFF7E9F8064605E000BF9B
:101DF000FFF7E4F8801B02281ED820688007F7D47C
:101E00002878000729D5794869696C30002980460F
:101E1000016812D041F001010160FFF7CFF80646DA
:101E200005E000BFFFF7CAF8801B022804D8D8F8E5
:101E300000008007F6D510E089E021F00101016083
:101E4000FFF7BCF8064604E0FFF7B8F8801B02284D
:101E50007DD8D8F800008007F6D4287840076BD5E5
:101E6000DFF8888108F13808D8F80000C0000BD4EA
:101E7000D8F8001041F08051C8F80010D8F80000E0
:101E8000012700F08050009059480168C90512D41C
:101E90000168834641F480710160FFF78FF80646C0
:101EA00005E000BFFFF78AF8801B64284FD8DBF8F5
:101EB0000000C005F6D54D4EA868683601280AD046
:101EC00008B1052811D0306820F00100306030687A
:101ED00020F0040002E0306840F001003060A868A3
:101EE000A0B1FFF76BF883460CE0306840F00400C7
:101EF0003060F0E7FFF762F8A0EB0B0141F28830A9
:101F0000814268D830688007F4D50EE0FFF756F8B4
:101F1000834607E0FFF752F8A0EB0B0141F288304F
:101F2000814258D830688007F4D42FB1D8F8001017
:101F300021F08051C8F80010A869E0B3D9F800106A
:101F4000C1F3810102294ED00228206800E042E05E
:101F500020F08070206003D0FFF730F805463DE0A8
:101F6000FFF72CF8064604E0FFF728F8801B02284C
:101F700031D820688001F7D4D5E90921DFF874C091
:101F8000D5E9070695F830304F0895F82C10304306
:101F90000CEB074545EA8212104340EA016040EA33
:101FA0000370CAF80000206840F080702060FFF7DE
:101FB00005F8054605E014E0FFF700F8401B02288D
:101FC00009D820688001F7D50BE000BFFEF7F6FFC7
:101FD000401B022802D90320BDE8F88F2068800149
:101FE000F4D40020F8E70120F6E7000008380240AA
:101FF000007000400000FFFF90F82C00704770B5A3
:1020000004000D4603D094F82C0010B107E0012025
:1020100070BD002084F82D00204600F011F8022049
:1020200084F82C002068211DFEF797FAD4E90002FD
:102030002946FEF7D7FA012084F82C00002070BD55
:10204000FEF758BE10B5044690F82C00022809D0BF
:10205000022084F82C002068FEF7AEFA012084F8F4
:102060002C00002010BD000070B5044690F82C0034
:102070000D4602280DD0022084F82C002068FEF7BF
:10208000A1FA2868022805D05FF0010084F82C002E
:10209000002070BD0520F9E710B5044690F82C002B
:1020A00002280AD0022084F82C00D4E90001FEF7AF
:1020B000DFFA012084F82C00002010BD04284FF026
:1020C000E020016903D021F004010161704741F073
:1020D0000401FAE77047401EB0F1807F10B501D3CC
:1020E000012010BD4FF0E02460610F21601701F066
:1020F000DBFB0020A0610721216110BD10B5FFF7B7
:10210000E9FF10BD10B5040003D094F8690010B1C8
:1021100007E0012010BD002084F86800204600F090
:1021200027F8242084F869002068016821F0010163
:102130000160204601F0E4FC0128EBD0606A10B198
:10214000204601F059FC2068416821F4904141602B
:102150002068816821F02A0181602068016841F0CF
:10216000010101602046BDE8104001F0A9BC00005B
:102170002DE9F04329490746006887B088424AD1D3
:102180002748016841F01001016000680024022125
:1021900000F0100005904FF4C06007238DE8130095
:1021A00003222048CDE903236946FEF711FE1E4EA7
:1021B0004FF480691D4A4FF0006830463260C6E92E
:1021C0000184C6E903497461B461F46134627462E4
:1021D000FEF70CFD18B1712115A001F0F0FD124DB4
:1021E00040237E666035B76305F108000F4A7832F8
:1021F00080E818026C612846AC61EC612C626C626C
:10220000C5E90028FEF7F2FC18B1832108A001F00F
:10221000D6FD3D66AF6307B0BDE8F0830010014016
:10222000443802400000024018020020406402408E
:102230002E2E2F5372632F75736172742E630000FC
:102240002DE9F843044690F869001F4616460D46EE
:1022500020284ED1C5B1BEB194F86800012848D0FD
:10226000012284F8682021214FF00008C4F86C8016
:1022700084F869105034FEF7A1FE268081466680FE
:10228000503C4FF4805619E00120BDE8F88300BFB0
:10229000B4F85200401EA4F8520000224B468021A0
:1022A0002046009701F058FDA0B9A068B04201D1C6
:1022B000206988B115F8010B21688862B4F85200D2
:1022C0000028E5D100224B4640212046009701F02E
:1022D00043FD38B10320D8E735F8020B2168C0F37D
:1022E0000800EAE7202184F86910002084F868805B
:1022F000CBE70220C9E7FEE72DE9F84F1D4C082681
:1023000000274FF6FF780125824642462146C4E960
:102310000056C4E90257FFF7A7FE17480090401E79
:102320000090FCD102201349C4E90006C4E9025719
:10233000C14642465046FFF797FE03214FF004087E
:10234000E7604A4684E842010A495046FFF78CFE9E
:1023500040F2312007494A46C4E90250C4E90086E8
:102360005046FFF781FE504640F26A51BDE8F84FF3
:10237000FFF768BED8030020A086010038B51446D8
:10238000054600910948FFF737FE0028FAD1002CD6
:102390000AD00098A0F140500068641E01C5009862
:1023A00000F104000090F5D138BD0000CC00002001
:1023B00070B5002626A03546344601F001FD002107
:1023C0004FF40002A6F140500170761C9642F9D3FA
:1023D0000020A0F140562B183370401C9042F8D3D7
:1023E0005FF00000A0F140532E181B78F6B29E4219
:1023F00001D027A01FE0401C9042F3D300204FF4EF
:1024000080024300A3F14053401C90421980F8D34E
:10241000002021184300A3F14053401C9042198032
:10242000F7D300204100A1F14051231809889BB245
:102430008B4204D020A001F0C3FC002070BD401CE2
:102440009042EFD326A001F0BBFC012070BD00003C
:102450003C3C2D534452414D2D494E464F2D3E3E5E
:1024600020D5FDD4DABCECB2E2534452414DA3ACCA
:10247000D2D438CEBBA1A23136CEBBB5C4B7BDCA0B
:10248000BDB6C1D0B4736472616D2E2E2E0A0000E9
:102490003C3C2D534452414D2D4552524F522D3EFE
:1024A0003E2038CEBBCAFDBEDDB6C1D0B4B4EDCE41
:1024B000F3A3A10A000000003C3C2D534452414DBF
:1024C0002D4552524F522D3E3E203136CEBBCAFDD5
:1024D000BEDDB6C1D0B4B4EDCEF3A3A10A000000B6
:1024E0003C3C2D534452414D2D494E464F2D3E3ECE
:1024F00020534452414DB6C1D0B4B2E2CAD4D5FD46
:10250000B3A3A3A10A00000038B5144605460B4842
:102510000091FFF7C1FD0948FFF76EFD0028FAD1D1
:10252000002C0AD00098641E02CDA0F1405001603A
:10253000009800F104000090F4D138BDCC000020D8
:102540001CB5044600F0E2FB034600F0CFFB024658
:102550000020CDE900040648064C406800EB8001ED
:1025600001EBC00104EB8101C96D00F0ABFE1CBDA5
:102570002C000020000100202DE9F041134D0646FB
:10258000134C686800EB400004EB800154F82070A5
:10259000496844F8201000F0A9FB82B2686800EB9B
:1025A000400004EB80008068C38803FB06F081B222
:1025B000002000F02DFB686800EB400044F820701C
:1025C0003846BDE8F04100F027BC00002C00002098
:1025D0006803002030B40A4C0A4B646804EB4404DE
:1025E00003EB84039B689C881D68E41DDB88E4087A
:1025F000203A14FB02F203FB025230BCFDF752BF3B
:102600002C00002068030020094810B5006881698B
:1026100041F001018161074C012210212046FEF7A3
:10262000C7FC01222046BDE810408021FEF7C0BC57
:1026300000010020000C02402DE9F047002704466D
:102640001546894610463A4600E0521C10F8011B18
:102650000029FAD100F04AFBDFF89CC0012B274E7D
:10266000DCF8041001EB410106EB810189688988DF
:10267000B0FBF1F002D0022B09D104E0801A4843EC
:1026800004EB500002E0801A4843001B84B247F676
:10269000FF71601E884200D30124E04600F026FB53
:1026A0000146D8F8040000EB400006EB800080688B
:1026B000808807FB101189B2814213D3012012E0F8
:1026C00049462046FFF786FFD8F804007F1CBFB2BA
:1026D0006D1C00EB400006EB800080688088204481
:1026E00084B2DBE700202A780AB1012100E0002152
:1026F0000842E5D1BDE8F0872C00002068030020E7
:102700000A46034610B500F0E3FAC088BDE8104061
:102710005843032381B20020FFF78EBF2DE9FF4FFE
:1027200082461446032089460025A0EB440878E041
:102730003E4EA9EB040B3E4F0AEB0500716801EB1E
:10274000410157F821201FFA8BF1039080B200F06D
:1027500023F970681FFA8BF100EB400057F8202036
:10276000AAEB0500029080B200F016F97068A9EBA0
:10277000050B1FFA8BF100EB400057F820200AEB05
:102780000400019080B200F007F970681FFA8BF125
:1027900000EB400057F82020AAEB0400009080B224
:1027A00000F0FAF8716809EB040B039801EB4101A2
:1027B00080B257F821201FFA8BF100F0EDF8706815
:1027C0001FFA8BF100EB400057F82020029880B2EE
:1027D00000F0E2F8726809EB050B01981FFA8BF123
:1027E00002EB420280B257F8222000F0D5F872685E
:1027F0001FFA8BF1009802EB420280B257F82220B8
:1028000000F0CAF8B8F1000F04DA08EB850000F117
:10281000060805E0291B641E08EB810000F10A0888
:102820006D1CA54284D9BDE8FF8F00002C0000205C
:10283000680300207CB5244C06460D46234B606897
:1028400000EB800101EBC00003EB8000806CE0B185
:10285000012829D000F04AFA616800FB056001EB0D
:10286000810505EBC10103EB8101C96D01EB40015D
:102870006068174C002300EB400554F82550CDE963
:102880000035012300F01EFD7CBD00F02FFA6168C9
:1028900000FB056001EB810505EBC10103EB810144
:1028A000C96D01EB8001E3E700F020FA616800FBED
:1028B000056001EB810505EBC10100EB400003EB76
:1028C0008101C96D0144D3E72C00002000010020E4
:1028D000680300202DE9FC4F151A0027002D00DCAD
:1028E000851A5C1A0FFA85FC002C00DCCC1A06B2A3
:1028F00082424FF0FF320DB220B203D30124009484
:10290000A24601E0924600928B4203D34FF0010BA6
:10291000D94601E09346D9464FF00001844507DBD4
:10292000894600910CEBDC71E04601904C102AE0E6
:102930008A464FF0000B00EBD0718046CDF804C002
:102940004C1020E01248A9B2124B4268B0B202EB20
:10295000420253F8222000F01FF80198204404B2EC
:10296000444508DB0098A4EB08010CB2321805EBD3
:102970000B0016B205B27F1C06EB0A0105EB09003D
:102980000EB205B23FB24745DCDDBDE8FC8F00006A
:102990002C00002068030020304BF0B50646586834
:1029A0000D462F4C00EB800101EBC00004EB8000D2
:1029B000806C88B101281ED092B200F097F9596856
:1029C00005FB006001EB810303EBC10104EB810116
:1029D000C96D21F81020F0BD00F088F9596805FB99
:1029E000006001EB810303EBC10104EB8101C96DC0
:1029F00041F82020F0BD00F079F95F68110C05FB6B
:102A0000006007EB870C0CEBC70700EB400004EB02
:102A10008707801CFF6D395400F068F95968170A60
:102A200005FB006001EB810C0CEBC10100EB4000E9
:102A300004EB8101401CC96D0F5400F057F959682F
:102A400005FB006001EB810303EBC10100EB4000DB
:102A500004EB8101C96D0A54F0BD00002C00002078
:102A6000000100202DE9F0411C4616460D460746A0
:102A7000FFF7E0FE2819324681B23846FFF7DAFE4A
:102A800022462946384600F009F8B8192246294658
:102A9000BDE8F04180B200F001B800002DE9FC4132
:102AA000274C07460E46274D606800EB800101EB7E
:102AB000C00005EB8000806C18B3012830D000F016
:102AC00015F9616800FB067001EB810303EBC1019E
:102AD00005EB8101C96D01EB400500BF00F006F96F
:102AE0006468401E184B04EB440153F82110134650
:102AF0000122CDE900012946204600F0E3FBBDE8B4
:102B0000FC8100F0F3F8616800FB067001EB8103C3
:102B100003EBC10105EB8101C96D01EB8005DDE728
:102B200000F0E4F8616800FB067001EB810303EB41
:102B3000C10100EB400005EB8101C96D4518CDE7EF
:102B40002C00002000010020680300202DE9F74F31
:102B5000DFF8B49014460320DFF8B0A0A0EB4406E1
:102B60000F4600259046D9F8040082B000EB4001E2
:102B70005AF8210000F050F94FF6FF7B31E08CB19C
:102B800002980BEA44027B19001BCDE9000299B2BE
:102B900080B2FFF74FFE0098791B89B2019A80B28C
:102BA000FFF748FE8DB102980BEA45023B1B401B24
:102BB000CDE9000299B280B2FFF73CFE00983919C6
:102BC00089B2019A80B2FFF735FE002E03DA06EBD8
:102BD0008506B61D04E0281B641E06EB80060A3637
:102BE0006D1CA542CBD9D9F8040000EB40015AF87E
:102BF000210000F011F9029805B042463946BDE8BF
:102C0000F04FFFF78BBD00002C0000206803002070
:102C10002DE9FC4198462B4B05462B4E17460C469A
:102C2000586800EB400056F8200000F0F5F85868AE
:102C3000264A00EB800101EBC00002EB8000806CB3
:102C400008B301282ED000F051F8596800FB045059
:102C500001EB810404EBC10102EB8101C96D01EBC1
:102C6000400400BF00F042F8C11B5868434600EB27
:102C7000400256F82220CDE900123A46214600F0E3
:102C800021FBBDE8FC8100F031F8596800FB0450DD
:102C900001EB810404EBC10102EB8101C96D01EB81
:102CA0008004DFE700F022F8596800FB045001EBD4
:102CB000810404EBC10100EB400002EB8101C96D0E
:102CC0004418CFE72C0000206803002000010020FA
:102CD00004480549406800EB400001EB8000806833
:102CE000704700002C000020680300200548406861
:102CF00000EB800101EBC000034901EB8000006E96
:102D0000704700002C0000200001002005484068AA
:102D100000EB800101EBC000034901EB8000406E35
:102D2000704700002C00002000010020014800F046
:102D300065B800003400002070B58EB00D46002349
:102D400004460093FFF7D2FFCDE90103FFF7DEFF52
:102D5000FF21039007208DF8303009954FF4C066AD
:102D60008DF83130CDE9042106938DF83230CDE96C
:102D70000760FFF7BBFF0A90FFF7C8FF0B902246E2
:102D80000C486946FEF754F90B4904EB44004FF038
:102D9000FF3401EB800223065460084C946041F834
:102DA000203004480068416A41F0010141620EB0E0
:102DB00070BD0000000100206803002034000020E6
:102DC00001494860704700002C0000200449054A72
:102DD000496801EB410102EB810148607047000046
:102DE0002C000020680300200B4600B500F014F80A
:102DF0005DF804EB1846FFF7E9BF00000449054AF7
:102E0000496801EB410102EB8101886070470000D5
:102E10002C000020680300200349044A496801EBA4
:102E2000410142F8210070472C0000206803002077
:102E300002460148FEF7DDBA000100202DE9F04FFF
:102E4000C94C002099B04FF07F4860604046FFF7C2
:102E500077FB4FF0FF3541462846FFF7C5FF04F1E9
:102E60000800FFF7CBFF0120C0A1FFF749FC0220BB
:102E7000C4A1FFF745FC0320C9A1FFF741FC0420D2
:102E8000D0A1FFF73DFC0520D6A1FFF739FC0620B5
:102E9000E0A1FFF735FC2078E7A1401CC2B26846EC
:102EA000227000F09DFF0720FFF766FB4146284691
:102EB000FFF79AFF07206946FFF722FCE748FFF774
:102EC000ABFF0820FFF758FB0820E5A1FFF718FC2F
:102ED0004FEA054A41465046FFF786FFFA2340F283
:102EE000EE26322032461946FFF7F4FC4FF4967571
:102EF00032462B4632201946FFF7ECFC4FF0FF27F5
:102F000041463846FFF770FF4FF4C87628463346EF
:102F1000FA211A46FFF7DEFC68003346FA21024622
:102F2000FFF7D8FC40F6B83B5846FDF7D1FE4146C6
:102F30000846FFF759FF7200C82100204FF48C7338
:102F4000FFF766FEC548FFF767FF0820FFF714FB91
:102F50000820C6A1FFF7D4FB41465046FFF744FFC7
:102F6000C82264231046FA21FFF77CFD414638460B
:102F7000FFF73AFF4FF4AF7932234846C822FA21CF
:102F8000FFF770FDB5484146FFF72EFFC8234946BD
:102F900032221846FFF766FD5846FDF799FE414676
:102FA0000846FFF721FF7200C82100204FF48C7300
:102FB000FFF72EFEA948FFF72FFF0820FFF7DCFAE6
:102FC0000820ADA1FFF79CFB41465046FFF70CFFE0
:102FD000C82264231046FA21FFF71AFE41463846FC
:102FE000FFF702FF32234846C822FA21FFF710FEFE
:102FF0009A484146FFF7F8FEC82349463222184650
:10300000FFF706FE5846FDF763FE41460846FFF708
:10301000EBFE7200C82100204FF48C73FFF7F8FD1F
:103020008E48FFF7F9FE0820FFF7A6FA082096A1C0
:10303000FFF766FB51460846FFF7D6FE32224946A7
:10304000C820FFF76BFB39460846FFF7CDFE49461F
:103050004B220846FFF762FB5846FDF739FE414612
:103060000846FFF7C1FE7200C82100204FF48C73A0
:10307000FFF7CEFD7948FFF7CFFE0820FFF77CFA77
:10308000082085A1FFF73CFB41465046FFF7ACFE08
:10309000322249462846FFF759FD41463846FFF798
:1030A000A3FE4FF4E17549464B222846FFF74EFD3B
:1030B0005846FDF70DFE41460846FFF795FE7200A3
:1030C000C82100204FF48C73FFF7A2FD0820FFF702
:1030D00053FA6248FFF7A0FE0820FFF74DFA0820D8
:1030E00072A1FFF70DFB80210120FFF7A1FE012057
:1030F00060604046FFF724FA41465046FFF774FEF1
:103100004B2249463046FFF721FD5846FDF7E0FDCA
:10311000002060604046FFF713FA00210120FFF70E
:1031200087FE41463846FFF75FFE4B224946284658
:10313000FFF70CFD49484146FFF756FE49464B2232
:103140000846FFF703FD5846FDF7C2FD4146084615
:10315000FFF74AFE7200C82100204FF48C73FFF77E
:1031600057FD19B0BDE8F08F2C00002042482035F3
:103170002E3020696E6368204C4344207061726178
:103180003A000000496D616765207265736F6C7568
:1031900074696F6E3A383030783438302070780087
:1031A000546F756368207061643A3520706F696E82
:1031B0007420746F75636820737570706F727465B6
:1031C000640000005573652053544D33322D4C5428
:1031D000444320646972656374656420647269762F
:1031E00065722C006E6F206E65656420657874656D
:1031F000726E206472697665722C52474238383894
:103200002C32346269747320646174612062757356
:1032100000000000546F756368207061642075734E
:10322000652049494320746F20636F6D6D756E6929
:103230006361746500000000446973706C617920FB
:1032400076616C75652064656D6F3A207465737482
:10325000436F756E74203D2025642000FF0000FF41
:1032600044726177206C696E653A00004472617740
:1032700020526563743A0000447261772046756C91
:103280006C20526563743A004472617720636972FE
:10329000636C653A00000000447261772066756CCB
:1032A0006C20636972636C653A0000005472616E51
:1032B00073706172656E6379206566666563743AE2
:1032C000000000002DE9F84307461E480E461E493F
:1032D00015461C46DDE908284FF4403CC0F804C000
:1032E00049681A4B01EB810C0CEBC10103EB810126
:1032F000896C022906D029B1012903D0032901D004
:10330000042900D181601249C26001600D48FDF7B7
:10331000A1FA002814D10B483946FDF7B3F900286B
:103320000ED108482B46324641460094FDF774FB07
:10333000002805D1BDE8F84302486421FDF7E6BA4C
:10334000BDE8F883800300202C000020000100204D
:1033500000B002400148FDF795BE000000010020CA
:103360002DE9FE4F81460068882493468D888C2283
:1033700004EBCB178A46C3689421BE46C459C3F3F5
:103380000B432B4404F470441F04019702EBCB124F
:1033900040F80E4001EBCB13DAF800709C214FF09F
:1033A000AC0C01EBCB1440F2077102910CEBCB118A
:1033B000D9F800C098250020CDF800C0A02605EB64
:1033C000CB15DCF80CC006EBCB16CCF30B4C0CF198
:1033D000010C07EB0C08DDF800C0019F48EA070864
:1033E0004CF80E80D9F80070BAF80CC0B846FF68E7
:1033F000C7F30A0767444FEA074E58F8027007F40C
:10340000704C48F802C0D9F800C0DAF80870DCF84F
:103410000C80C8F30A0808F10108B84448EA0E080D
:103420004CF80280D9F80020D75827F00707D7506A
:10343000D9F80070DAF81020FA509AF831209AF88A
:1034400018304FEA022C9AF83220120442EA036242
:10345000D9F800301F5918519AF8303043EA0C035C
:103460001343D9F800201351D9F80020535923F001
:10347000FF035351D9F80020DAF814305351D9F82A
:1034800000209359029CA3439351D9F80030DAE904
:10349000072422439A51D9F8002053585050D9F8A4
:1034A0000020DAF824005050DAF81000C8B30128E0
:1034B0003AD004283AD0022838D0032836D007283A
:1034C00034D00120D9F80030B02505EBCB11B4225F
:1034D00084245D5802EBCB1205F0E0255D50DAE95B
:1034E000003504EBCB14EB1ABAF82850434345439C
:1034F000D9F80000DB1C43EA05434350D9F800002B
:1035000081586FF30A018150D9F80000DAF82C10C5
:103510008150D9F80000015941F001010151BDE885
:10352000FE8FFFE70420CDE70320CBE70220C9E7A9
:103530000B480021094B4FF4403210B50360C0E93D
:103540000121C160FDF786F9002805D0BDE81040D3
:103550003B2104A000F033BC10BD000000B00240CD
:10356000740000202E2E2F5372632F646D6132641D
:103570002E6300000D4808B5016841F48001016028
:1035800000680022114600F4800000903A20FDF708
:10359000A1FF3A20FDF792FF002246201146FDF7D9
:1035A00099FFBDE808404620FDF788BF303802404B
:1035B000F0B5184887B0164D4FF0000C40244FF07E
:1035C000100E0422056002210123C260C0E9013C03
:1035D0000B03C0E904E48F02CE024FF4C07585618D
:1035E0000724C0E90963C0E907C706250292CDE9AF
:1035F0000014CDE90351059106916946FEF7FFFCE1
:10360000002803D0512104A000F0D9FB07B0F0BD81
:10361000400100A0CC0000202E2E2F5372632F6695
:103620006D632E630000000045482DE9F0410168FC
:1036300086B041F010010160016801F010010591B0
:10364000016841F004010160016801F00401059185
:10365000016841F480710160016801F48071059195
:10366000016841F020010160016801F0200105912D
:10367000016841F080010160016801F0800105915D
:10368000016841F001010160016801F0010105914B
:10369000016841F002010160016801F00201059139
:1036A000016841F040010160016801F040010591AD
:1036B000016841F00801016000684FF4E056214FB5
:1036C000002200F00800314605903846FDF770FCF6
:1036D000DFF87480002290214046FDF769FC002548
:1036E00069464FF400500295CDE900051748FDF7F3
:1036F0006FFB1748012469460295CDE90040154843
:10370000FDF766FBCDE90064CDE902456946384620
:10371000FDF75EFB02219020CDE90004CDE90241D6
:1037200069464046FDF754FB002206201146FDF78E
:10373000D1FE0620FDF7C2FE06B0BDE8F081000014
:1037400030380240001C0240000C024000080240D9
:103750000000111000000240384803212DE9F0411B
:10376000354B9AB003600024446000F1180884606F
:103770002E22C4601A2304614FF456774FF4047C60
:1037800040F24E354FF4FD76446188E8EE1080F843
:10379000344080F8354080F83640FDF7D7FC18B14A
:1037A0004C2127A000F00BFB4FF448754FF00708A1
:1037B000FF214FF4F07609A8CDE90045CDE9024696
:1037C000CDE904414FF05042694680E8640006A804
:1037D0004FF4C067002280E890018DF830408DF8EA
:1037E000314016488DF83240FDF722FC18B16021B7
:1037F00013A000F0E4FACDE90D45CDE90F4616A877
:10380000134911940122129480E8620013A80DA9B3
:1038100080E890018DF864408DF8654007488DF888
:103820006640FDF705FC002803D0742104A000F0D9
:10383000C6FA1AB0BDE8F08100680140000100201E
:103840002E2E2F5372632F6C7464632E630000005E
:10385000000020D00E48002110B50C4C0C224FF473
:10386000E1330460C0E90131C160C0E90412816143
:10387000C16101624162FEF745FC002805D0BDE848
:103880001040472103A000F09ABA10BD001001407B
:10389000A80100202E2E2F5372632F75736172744E
:1038A0002E630000FEE77047090700284FEA116108
:1038B00006DA00F00F0000F1E02080F8141D7047D8
:1038C00000F1E02080F8001470477047704710B591
:1038D000FDF77AFBBDE81040FEF710BC2F48F0B5AD
:1038E0000168B7B041F080510160006800F080507D
:1038F00036902B48016841F4404101600068022481
:103900002CAD00F4404036906005E7031921CDE965
:103910002A4009232F934FF4D87285E81600012618
:10392000CDE9246724A8FEF7C9F900B1FEE7FDF749
:1039300003FE00B1FEE74FF480524FF4A051002582
:10394000CDE9341231AA0F20072182E8310031A8D5
:10395000FEF7C6F800B1FEE7482000900522684651
:10396000CDE90725C0211195CDE90514CDE90A67F8
:10397000FDF718FE00B1FEE7FEF748F94FF47A7143
:10398000B0FBF1F0FEF7A7FB0420FEF797FB002247
:10399000501E1146FDF79EFD37B0F0BD4038024085
:1039A00000700040104A30B51048146800210F4BD9
:1039B00044F470041460083305680D4A0D4C45F05A
:1039C0000105056019600368051D1340074A03607F
:1039D0000C322C600568E305034C25F48025056056
:1039E000803C1160236030BD88ED00E0003802406B
:1039F000FFFFF6FE1030002490F82410C90706D00F
:103A00000168836A4A6822F400321A434A6090F8D7
:103A10002410890706D50168C36A4A6822F48032F7
:103A20001A434A6090F82410490706D50168036BD1
:103A30004A6822F480221A434A6090F82410090749
:103A400006D50168436B4A6822F400421A434A6073
:103A500090F82410C90606D50168836B8A6822F4A1
:103A600080521A438A6090F82410890606D50168AE
:103A7000C36B8A6822F400521A438A6090F82410BB
:103A8000490611D50168036C4A6822F480121A4372
:103A90004A60016CB1F5801F06D10168436C4A6829
:103AA00022F4C0021A434A6090F82410090606D591
:103AB0000168826C486820F4002010434860704719
:103AC00038B500250446C566FDF778FA0346206838
:103AD000006800070BD56FF07E4000900022204662
:103AE0004FF4001100F038F908B1032038BD202050
:103AF00084F8690084F8685084F86A00002038BDB2
:103B00002DE9F04704468068874B884F2668D4E942
:103B10000415E2690843D6F800C0102115430022BD
:103B2000284315460CEA030C814B4CEA000CC6F8FE
:103B300000C04FF400492068D4F80CC0466826F451
:103B4000405646EA0C0646602668D4F82080A069F4
:103B5000D6F808C040EA08002CF4306C4CEA000C9F
:103B6000C6F808C02068B8420AD11B6813F00303E6
:103B700052D0012B7AD0022B76D0032B79D177E06B
:103B80006C4EB0420AD11B6813F00C036AD0042BB0
:103B90006CD0082B68D00C2B6BD169E0664EB0421C
:103BA0000AD11B6813F030035CD0102B5ED0202BA1
:103BB0005AD0302B5DD15BE0604EB0420AD11B6819
:103BC00013F0C0034ED0402B50D0802B4CD0C02BD4
:103BD0004FD14DE05A4EB0420DD11B6813F44073E3
:103BE00040D0B3F5807F41D0B3F5007F3CD0B3F532
:103BF000407F3ED13CE0534EB0420FD11B6813F4DE
:103C0000406309D0B3F5806F30D0B3F5006F2BD08F
:103C1000B3F5406F2DD12BE001212AE04A4EB0428E
:103C20000DD11B6813F440531CD0B3F5805F1DD039
:103C3000B3F5005F18D0B3F5405F1AD118E0434EDA
:103C4000B04216D11B6813F440430BD0B3F5804F3C
:103C50000CD04B4508D0B3F5404F0AD108E005E041
:103C600002E0FFE7002104E0022102E0042100E07D
:103C70000821E6694E452AD109291FD2DFE801F063
:103C80000508141E171E1E1E1A00FDF7C5FF01E0D1
:103C9000FDF7D2FF0146D4F80400490001EB5001C2
:103CA000B1FBF0F082B20AE029496068F6E7FDF75F
:103CB000D3FFEFE760684FF48031EFE7012521681B
:103CC00022F00F00C2F342021043C86028E0092925
:103CD00025D2DFE801F005080B24102424241C0061
:103CE000FDF79AFF09E0FDF7A7FF06E06168194AB2
:103CF00002EB51020EE0FDF7AFFF0146D4E90020D0
:103D000001EB5001B1FBF0F080B2D06008E06168D7
:103D100009EB5102B2FBF1F189B2C16000E001256B
:103D20002846BDE8F0870000F369FFEF001001406E
:103D3000903802400044004000480040004C0040E1
:103D4000005000400014014000780040007C00401A
:103D50000048E8010024F4002DE9F0419846174698
:103D60000E460446069D1DE0681C1BD02DB1FDF7D4
:103D700025F9A0EB0800A84214D3216820200022D6
:103D80000B6823F4D0730B6021688B6823F0010368
:103D90008B6084F8690084F86A00032084F8682046
:103DA000BDE8F0812068C06936EA000004D0002038
:103DB000B842D9D00020F3E70120F9E7FEE7FEE79B
:103DC0000FB4054B10B503A9044A029800F02CF873
:103DD00010BC5DF814FB0000F540000870000020E6
:103DE0000FB4084B10B504A902AA039800F01CF800
:103DF000044602A9002000F077F9204610BC5DF8C7
:103E000014FB0000E940000802E008C8121F08C1C6
:103E1000002AFAD170477047002001E001C1121F4B
:103E2000002AFBD1704700002DE9FF4F8DB09B4663
:103E30000F460446002606E025280BD05A460F9967
:103E40009047641C761C20780028F5D111B03046CC
:103E5000BDE8F08F0025A8460122984900E00543FF
:103E600014F8013F203B02FA03F00842F7D1207812
:103E70002E2817D114F8010F45F004052A280ED07A
:103E80006FF02F022078A0F1300109290AD808EB41
:103E9000880102EB410100EB0108641CF2E757F8CE
:103EA000048B641C20786C280DD004DC4C2812D0C4
:103EB0006A2811D104E074280DD07A280CD10AE0C8
:103EC00045F4001507E0617845F48015814202D180
:103ED000641C05F58015641C2278692A45D008DC2D
:103EE000002AB3D0582A69D0632A10D0642A08D196
:103EF0003BE0702A67D0732A13D0752A5CD0782AE9
:103F00005CD010465A460F999047761CD3E017F8BC
:103F1000040B8DF8000000208DF80100E946012017
:103F200003E057F8049B4FF0FF3069074FF000059E
:103F300001D40AE06D1C45450DDA8542FADB19F81B
:103F400005100029F6D106E06D1C8542FCDB19F84E
:103F500005100029F8D12E4404E019F8010B5A4647
:103F60000F9990476D1EF8D2A5E00A200021CDE9F7
:103F70000801C5F3025002280DD001CFC117031E5E
:103F800071F100030DDA4FF0000CD0EB0C006CEB7C
:103F900001012D2308E0FF1D27F00707F7E80201C4
:103FA000EDE72B0504D52B238DF8283001233BE0CA
:103FB000EB0739D02023F7E70A2000E0102000218A
:103FC000CDE9080107E01020002145F00405CDE906
:103FD00008014FF00808C5F3025002280FD001CFA6
:103FE00000214FF0000A2B071FD5702A0DD0DDE904
:103FF00008C38CF0100C5CEA030C0CD015E0FF1D1C
:1040000027F00707F7E80201EBE740228DF82820A8
:104010004FF0010A0BE050EA010306D030238DF87F
:1040200028308DF8292002239A46582A04D024A249
:104030000DF120090B9209E026A2F9E7DDE908233A
:10404000FCF7F6F80B9B9B5C09F8013D50EA010276
:10405000F4D1ADEB090020300890680701D44FF08F
:1040600001080899884502DDA8EB010000E0002066
:104070008046002506E00AA85A46405D0F99904701
:104080006D1C761C5545F6DB04E030205A460F992E
:104090009047761CB8F10001A8F10108F5DC05E0B5
:1040A00019F8010B5A460F999047761C0899481E3B
:1040B00008900029F4DC641CC5E600000928010012
:1040C000303132333435363738396162636465668E
:1040D0000000000030313233343536373839414250
:1040E00043444546000000000A68531C0B601070F2
:1040F0007047000013B5044801224FF6FF7369466C
:10410000FEF79EF800981CBDA8010020BFF34F8F5A
:10411000BFF36F8F5B490020594A0860116841F472
:1041200000311160BFF34F8FBFF36F8F544970316F
:104130000860BFF34F8F081F524D43F6FF741035D0
:104140000068C0F34E31C0F3C90304EA41161846B3
:1041500046EA80772F60401EFAD2491EF5D2BFF39F
:104160004F8F106840F480301060BFF34F8FBFF363
:104170006F8FFCF731FFFFF7B1FBFFF755FAFFF741
:10418000F9F9FFF767FBFFF713FAFFF7E5FAFFF717
:10419000CFF90020FCF7C0F80220FCF7BDF80120A1
:1041A000FCF7BAF80020FCF7B7F80120FCF7B4F8E8
:1041B0000220FCF7BFF800F091F8334C3348206040
:1041C00000688047206800224FF05041036A104683
:1041D0009847206800222E4E3146036A01209847F6
:1041E0002068C0688047206881690020884720686F
:1041F0004FF07F4541692846884720688169012042
:10420000884720684169284688472068FF21C2699D
:104210000020904720680021C269012090470020BB
:10422000FCF77AF80120FCF785F80220FCF774F817
:1042300018A11FA0FFF7C4FD5FF00005A5F14050D5
:1042400001781CA0FFF7BCFD6D1CC82DF6D311A191
:1042500019A0FFF7B5FD1AA115A0FFF7B1FD0025C4
:10426000A95D14A0FFF7ACFD6D1CC82DF8D314A1F7
:1042700011A0FFF7A5FD206840688047FBE700001C
:1042800014ED00E050EF00E0180000203C0000209A
:10429000000020D02D2D2D2D2D4430303020616692
:1042A00074657220636C6561722D2D2D2D2D0000BB
:1042B00025730A00257820000A25730A00000000F3
:1042C0002D2D2D2D2D4430323020616674657220E5
:1042D000636C6561722D2D2D2D2D000010B51849D0
:1042E0001848086001681848884718A0FFF768FD5B
:1042F0001CA123A0FFF764FD5FF00004A4F140506F
:10430000017820A0FFF75CFD641CC82CF6D315A132
:104310001DA0FFF755FD1EA119A0FFF751FD0024B8
:10432000A4F14050017817A0FFF74AFD641CC82C87
:10433000F6D3BDE8104016A113A0FFF741BD000061
:104340001400002060000020CC00002053445241A3
:104350004D2053657175656E636520696E697420C3
:104360004F4B0A002D2D2D2D2D443030302062650D
:10437000666F726520636C6561722D2D2D2D2D0089
:1043800025730A00257820000A25730A0000000022
:104390002D2D2D2D2D44303230206265666F7265D3
:1043A00020636C6561722D2D2D2D2D0000040008F9
:1043B0000010000610160006101600000000000095
:1043C00000000102030406070809000000000102C2
:1043D00003040000000000000000000000000000D6
:1043E00000000000000000000000000000000000CD
:1043F00000000000000000000000000000000000BD
:1044000000000000000000000000000000000000AC
:10441000000000000000000000000000000000009C
:1044200003800003800003800003800003800003FA
:104430008000038000038000038000010000010071
:104440000000000000000003800003800000000066
:10445000000000000000000000000000000000005C
:1044600000000000000000000000000E70000E7050
:10447000000E70000420000420000420000420002E
:10448000000000000000000000000000000000002C
:10449000000000000000000000000000000000001C
:1044A000000000000000000000000000000000000C
:1044B0000660000660000660000660000660003FBF
:1044C000F8003FF8000660000CC0003FF8003FF81D
:1044D000000CC0000CC0000CC0000CC0000CC000E0
:1044E00000000000000000000000000000000000CC
:1044F000000000000001800001800007B0000FF004
:10450000001870001870001C00000F800007E00009
:1045100000F0001830001C30001C70001FE0001B71
:10452000C0000180000180000180000180000000C7
:10453000000000000000000000000000000000007B
:104540000780000FC0001CE0001860001860001C0D
:10455000E0000FF80007E0001FF000073800061821
:104560000006180007380003F00001E0000000001A
:10457000000000000000000000000000000000003B
:10458000000000000000000000000000000003F038
:104590000007F0000C60000C00000C00000600009A
:1045A0000700000F9C001DFC0018F0001870000FA1
:1045B000FC0007DC0000000000000000000000001C
:1045C00000000000000000000000000000000000EB
:1045D0000000000380000380000380000100000150
:1045E00000000100000100000000000000000000C9
:1045F00000000000000000000000000000000000BB
:1046000000000000000000000000000000000000AA
:1046100000000000000000000018000038000070DA
:104620000000F00000E00000E00001C00001C00058
:1046300001C00001C00001C00001C00000E0000096
:10464000E00000700000700000380000180000005A
:10465000000000000000000000000000000000005A
:104660001800001C00000E00000E000007000007EC
:1046700000000380000380000380000380000380AB
:10468000000380000700000700000F00000E00007C
:104690001C000018000000000000000000000000E6
:1046A0000000000000000000018000018000018087
:1046B000001DB8001FF80007E00003C00003C000A1
:1046C000066000066000000000000000000000001E
:1046D00000000000000000000000000000000000DA
:1046E00000000000000000000000000000000000CA
:1046F0000000000000000180000180000180000136
:1047000080000180003FFC003FFC00018000018030
:104710000001800001800001800000000000000016
:104720000000000000000000000000000000000089
:104730000000000000000000000000000000000079
:104740000000000000000000000000000000000069
:1047500000000000000000000000000000E0000079
:10476000C00001C0000180000180000300000300C0
:104770000000000000000000000000000000000039
:104780000000000000000000000000000000000029
:1047900000000000001FF8001FF8000000000000EB
:1047A0000000000000000000000000000000000009
:1047B00000000000000000000000000000000000F9
:1047C00000000000000000000000000000000000E9
:1047D00000000000000000000000000000000000D9
:1047E00000000000000000000000000003C0000303
:1047F000C00003C000000000000000000000000036
:104800000000000000000000000000180000180078
:104810000038000030000070000060000060000000
:10482000C00000C000018000018000030000030000
:10483000000600000600000E00000C00001C000036
:104840001800001800000000000000000000000038
:10485000000000000000000003C00007E0000C3072
:10486000000C30001818001818001818001818004C
:104870001818001818001818000C30000C30000729
:10488000E00003C000000000000000000000000085
:104890000000000000000000000000000000000018
:1048A0000080000780001F80001D80000180000143
:1048B00080000180000180000180000180000180F3
:1048C000000180000180001FF8001FF800000000B8
:1048D00000000000000000000000000000000000D8
:1048E000000000000000000007C0001FF00038308A
:1048F0000030180030180000180000300000600080
:1049000001C0000380000600000C00001800003FFA
:10491000F8003FF800000000000000000000000068
:104920000000000000000000000000000000000087
:1049300003C0000FE0000C700000300000300000E9
:10494000600003C00003E0000070000018000018C1
:10495000000018001838001FF0000FC00000000011
:104960000000000000000000000000000000000047
:10497000000000000000000000E00001E00001E095
:10498000000360000660000660000C60000C600020
:104990001860003060003FF8003FF800006000033E
:1049A000F80003F800000000000000000000000014
:1049B00000000000000000000000000000000000F7
:1049C0001FF0001FF0001800001800001800001B66
:1049D000C0001FF0001C3000001800001800001874
:1049E000000018003030003FF0000FC00000000051
:1049F00000000000000000000000000000000000B7
:104A0000000000000000000000F80003F8000700AC
:104A1000000E00000C00001800001BC0001FF0007A
:104A20001C30001818001818001818000C38000F57
:104A3000F00003E0000000000000000000000000A3
:104A40000000000000000000000000000000000066
:104A50001FF8001FF8001818001838000030000078
:104A6000300000700000600000600000E00000C046
:104A70000000C00001C000018000018000000000B3
:104A80000000000000000000000000000000000026
:104A9000000000000000000007E0000FF0001C38DC
:104AA000001818001818000C300007E00007E0009C
:104AB0000C30001818001818001818001C38000FC7
:104AC000F00007E00000000000000000000000000F
:104AD00000000000000000000000000000000000D6
:104AE00007C0000FF0001C3000181800181800183C
:104AF00018000C38000FF80003D800001800003030
:104B00000000700000E0001FC0001F000000000057
:104B10000000000000000000000000000000000095
:104B20000000000000000000000000000000000085
:104B30000000000003C00003C00003C0000000002C
:104B400000000000000000000000000003C000039F
:104B5000C00003C0000000000000000000000000D2
:104B60000000000000000000000000000000000045
:104B700000000000000000000000000000F0000045
:104B8000F00000F000000000000000000000000045
:104B90000000E00001C0000180000180000300006F
:104BA0000200000000000000000000000000000003
:104BB0000000000000000000000000000000001CD9
:104BC00000003C0000F00003C0000F00003C0000AB
:104BD000F000003C00000F000003C00000F00000E7
:104BE0003C00001C0000000000000000000000006D
:104BF00000000000000000000000000000000000B5
:104C00000000000000000000000000000000007F25
:104C1000FC007FFC000000000000007FFC007FFC27
:104C20000000000000000000000000000000000084
:104C30000000000000000000000000000000000074
:104C400000000000000000000000000000007000F4
:104C5000007800001E000007800001E000007800DE
:104C6000001E0000780001E0000780001E000078B0
:104C700000007000000000000000000000000000C4
:104C80000000000000000000000000000000000024
:104C900000000007C0000FE0001870001830001876
:104CA000300000700000E00003C00003800003003B
:104CB00000000000000000070000070000000000E6
:104CC00000000000000000000000000000000000E4
:104CD000000000000000000003E00007F0000E38B4
:104CE000000C180018780018F80019D8001998005E
:104CF00019980019980018F8001878001800000C8E
:104D000000000E180007F80003E00000000000009B
:104D10000000000000000000000000000000000093
:104D20000000001F80001FC00001C00003600003DE
:104D300060000630000630000C30000FF8001FF84D
:104D400000180C00300C00FC7F00FC7F000000000D
:104D50000000000000000000000000000000000053
:104D600000000000000000000000007FE0007FF075
:104D7000001838001818001818001838001FF00024
:104D80001FF800181C00180C00180C00180C007FED
:104D9000F8007FF0000000000000000000000000AC
:104DA0000000000000000000000000000000000003
:104DB00000000003EC000FFC001C1C00180C00306D
:104DC0000C003000003000003000003000003000E7
:104DD00000180C001C1C000FF80003F0000000007D
:104DE00000000000000000000000000000000000C3
:104DF00000000000000000000000007FC0007FF005
:104E000000183800181800180C00180C00180C00B6
:104E1000180C00180C00180C001818001838007F27
:104E2000F0007FE000000000000000000000000033
:104E30000000000000000000000000000000000072
:104E40000000007FF8007FF80018180018180019FB
:104E500098001980001F80001F8000198000199899
:104E6000001818001818007FF8007FF800000000F4
:104E70000000000000000000000000000000000032
:104E800000000000000000000000003FFC003FFCAC
:104E9000000C0C000C0C000CCC000CC0000FC0006F
:104EA0000FC0000CC0000CC0000C00000C00003F44
:104EB000C0003FC000000000000000000000000033
:104EC00000000000000000000000000000000000E2
:104ED00000000003EC000FFC001C1C00180C00304C
:104EE0000C0030000030000030FE0030FE00300CBE
:104EF00000380C001C1C000FFC0003F00000000038
:104F000000000000000000000000000000000000A1
:104F100000000000000000000000007E7E007E7E99
:104F2000001818001818001818001818001FF800AA
:104F30001FF8001818001818001818001818007E1C
:104F40007E007E7E000000000000000000000000E7
:104F50000000000000000000000000000000000051
:104F60000000001FF8001FF8000180000180000110
:104F7000800001800001800001800001800001802C
:104F8000000180000180001FF8001FF800000000F1
:104F90000000000000000000000000000000000011
:104FA000000000000000000000000007FE0007FEF7
:104FB0000000300000300000300000300000300001
:104FC0003030003030003030003030003060003F92
:104FD000E0000F8000000000000000000000000062
:104FE00000000000000000000000000000000000C1
:104FF0000000007F3E007F3E00183000186000185F
:10500000C0001980001B80001FC0001CE000187049
:10501000001830001838007F1F007F1F00000000BC
:105020000000000000000000000000000000000080
:1050300000000000000000000000007F80007F8072
:10504000000C00000C00000C00000C00000C000024
:105050000C00000C0C000C0C000C0C000C0C007F65
:10506000FC007FFC000000000000000000000000C9
:105070000000000000000000000000000000000030
:10508000000000F00F00F81F00381C003C3C003C02
:105090003C00366C00366C0033CC0033CC00318CD5
:1050A00000300C00300C00FE7F00FE7F000000008E
:1050B00000000000000000000000000000000000F0
:1050C000000000000000000000000078FE0078FEF4
:1050D000001C18001E18001F18001B18001B980049
:1050E00019D80018D80018F8001878001838007F70
:1050F00018007F1800000000000000000000000001
:10510000000000000000000000000000000000009F
:1051100000000003C0000FF0001C38001818003811
:105120001C00300C00300C00300C00300C00381C1F
:10513000001818001C38000FF00003C00000000029
:10514000000000000000000000000000000000005F
:1051500000000000000000000000003FF0003FF8E9
:10516000000C1C000C0C000C0C000C0C000C1800AB
:105170000FF8000FE0000C00000C00000C00003FD6
:10518000C0003FC000000000000000000000000060
:10519000000000000000000000000000000000000F
:1051A00000000003C0000FF0001C38001818003881
:1051B0001C00300C00300C00300C00300C00381C8F
:1051C000001818001C38000FF00007C00007CC00C2
:1051D0000FFC000C38000000000000000000000080
:1051E00000000000000000000000007FE0007FF0F1
:1051F000001838001818001818001838001FF000A0
:105200001FC00018E0001870001830001838007F28
:105210001E007F0E000000000000000000000000E3
:10522000000000000000000000000000000000007E
:1052300000000007D8000FF8001C380018180018EC
:1052400018001E00000FC00003F0000078001818BE
:10525000001818001C38001FF0001BE000000000C0
:10526000000000000000000000000000000000003E
:1052700000000000000000000000003FFC003FFCB8
:1052800000318C00318C00318C00318C00018000A9
:105290000180000180000180000180000180000F7A
:1052A000F0000FF00000000000000000000000000F
:1052B00000000000000000000000000000000000EE
:1052C0000000007E7E007E7E00181800181800186E
:1052D00018001818001818001818001818001818C6
:1052E000001818000C30000FF00003C00000000090
:1052F00000000000000000000000000000000000AE
:1053000000000000000000000000007F7F007F7FA1
:1053100000180C000C18000C18000C1800063000C7
:1053200006300003600003600003600001C000015C
:10533000C00000800000000000000000000000002D
:10534000000000000000000000000000000000005D
:10535000000000FE3F80FE3F803006003006003037
:10536000860019CC0019CC001B6C001B6C001E7C45
:10537000000E38000E38000C18000C180000000059
:10538000000000000000000000000000000000001D
:1053900000000000000000000000007E7E007E7E15
:1053A000001818000C300006600003C000018000E7
:1053B00001800003C0000660000C30001818007E59
:1053C0007E007E7E00000000000000000000000063
:1053D00000000000000000000000000000000000CD
:1053E0000000007C7E007C7E001818000C30000657
:1053F000600006600003C0000180000180000180A1
:10540000000180000180000FF0000FF0000000009C
:10541000000000000000000000000000000000008C
:1054200000000000000000000000001FF8001FF84E
:105430000018180018300018600018C00001800023
:105440000300000618000C18001818003018003F60
:10545000F8003FF80000000000000000000000001D
:10546000000000000000000000000000000000003C
:1054700001F00001F00001800001800001800001C6
:105480008000018000018000018000018000018017
:105490000001800001800001800001800001800087
:1054A00001F00001F000000000000000000000001A
:1054B00000001800001800001C00000C00000E0086
:1054C0000006000006000003000003000001800049
:1054D00001800000C00000C000006000006000000B
:1054E00070000030000038000018000018000000B4
:1054F00000000000000000000000000000000000AC
:105500000F80000F800001800001800001800001F9
:105510008000018000018000018000018000018086
:1055200000018000018000018000018000018000F6
:105530000F80000F8000000000000000000000004D
:10554000000000000000800001C00003E0000770C0
:10555000000630000C1800180C00100400000000B9
:10556000000000000000000000000000000000003B
:10557000000000000000000000000000000000002B
:10558000000000000000000000000000000000001B
:10559000000000000000000000000000000000000B
:1055A00000000000000000000000000000000000FB
:1055B00000000000000000000000000000000000EB
:1055C000000000000000000000000000FFFF00FFDE
:1055D000FF0000000003000003800000E000006006
:1055E00000000000000000000000000000000000BB
:1055F00000000000000000000000000000000000AB
:10560000000000000000000000000000000000009A
:10561000000000000000000000000000000000008A
:105620000000000000000000000000000FC0001F8C
:10563000E00000300000300007F0001FF0003830BC
:10564000003030003070001FFC000FBC0000000074
:10565000000000000000000000000000000000004A
:105660000000000000000000780000780000180032
:10567000001800001BE0001FF8001C1800180C00A8
:10568000180C00180C00180C00180C001C18007FD7
:10569000F8007BE0000000000000000000000000B7
:1056A00000000000000000000000000000000000FA
:1056B00000000000000000000000000003EC000FEC
:1056C000FC001C1C00380C00300C003000003000C6
:1056D00000380C001C1C000FF80003F00000000054
:1056E00000000000000000000000000000000000BA
:1056F00000000000000000000078000078000018A2
:105700000000180007D8001FF800183800301800F3
:105710003018003018003018003018001838001FFA
:10572000FE0007DE00000000000000000000000096
:105730000000000000000000000000000000000069
:1057400000000000000000000000000007E0001F53
:10575000F800181800300C003FFC003FFC0030003F
:1057600000300000180C001FFC0007F000000000D3
:105770000000000000000000000000000000000029
:10578000000000000000000001FC0003FC00060017
:10579000000600003FF8003FF80006000006000089
:1057A0000600000600000600000600000600003F9C
:1057B000F0003FF0000000000000000000000000CA
:1057C00000000000000000000000000000000000D9
:1057D00000000000000000000000000007DE001FC5
:1057E000FE0018380030180030180030180030184B
:1057F000003018001838001FF80007D80000180003
:105800000018000038000FF0000FC000000000007A
:105810000000000000000000780000780000180080
:10582000001800001BE0001FF0001C3800181800D2
:105830001818001818001818001818001818007EFA
:105840007E007E7E000000000000000000000000DE
:105850000000000000000000000000000000000048
:105860000180000180000000000000001F80001F78
:105870008000018000018000018000018000018023
:10588000000180000180003FFC003FFC00000000A0
:105890000000000000000000000000000000000008
:1058A000000000000000000000C00000C000000078
:1058B000000000001FF0001FF0000030000030006A
:1058C00000300000300000300000300000300000E8
:1058D00030000030000030000030000070001FE099
:1058E000001F800000000000000000000000000019
:1058F0003C00003C00000C00000C00000CF8000C08
:10590000F8000CC0000D80000F80000F00000F8019
:10591000000DC0000CE0003C7C003C7C000000005E
:105920000000000000000000000000000000000077
:1059300000000000000000001F80001F80000180A8
:1059400000018000018000018000018000018000D2
:105950000180000180000180000180000180003F83
:10596000FC003FFC00000000000000000000000000
:105970000000000000000000000000000000000027
:10598000000000000000000000000000F77800FFA9
:10599000FC0039CC00318C00318C00318C00318C12
:1059A00000318C00318C00FDEF00FDEF00000000A5
:1059B00000000000000000000000000000000000E7
:1059C00000000000000000000000000000000000D7
:1059D000000000007BE0007FF0001C380018180079
:1059E0001818001818001818001818001818007E49
:1059F0007E007E7E0000000000000000000000002D
:105A00000000000000000000000000000000000096
:105A100000000000000000000000000003C0000FB4
:105A2000F0001C3800381C00300C00300C00300C2A
:105A300000381C001C38000FF00003C000000000FC
:105A40000000000000000000000000000000000056
:105A50000000000000000000000000000000000046
:105A6000000000007BE0007FF8001C1800180C000C
:105A7000180C00180C00180C00180C001C18001F43
:105A8000F8001BE0001800001800001800007F005C
:105A9000007F000000000000000000000000000087
:105AA00000000000000000000000000007DE001FF2
:105AB000FE00183800301800301800301800301878
:105AC000003018001838001FF80007D80000180030
:105AD00000180000180000FE0000FE00000000009A
